{"abi":[{"type":"constructor","inputs":[{"name":"_glpToken","type":"address","internalType":"address"}],"stateMutability":"nonpayable"},{"type":"function","name":"aumInUsdg","inputs":[],"outputs":[{"name":"","type":"uint256","internalType":"uint256"}],"stateMutability":"view"},{"type":"function","name":"getAumInUsdg","inputs":[{"name":"_maximise","type":"bool","internalType":"bool"}],"outputs":[{"name":"","type":"uint256","internalType":"uint256"}],"stateMutability":"view"},{"type":"function","name":"getGlobalShortAveragePrice","inputs":[{"name":"_token","type":"address","internalType":"address"}],"outputs":[{"name":"","type":"uint256","internalType":"uint256"}],"stateMutability":"view"},{"type":"function","name":"glpToken","inputs":[],"outputs":[{"name":"","type":"address","internalType":"contract IERC20"}],"stateMutability":"view"},{"type":"function","name":"mintAndStakeGlp","inputs":[{"name":"_token","type":"address","internalType":"address"},{"name":"_amount","type":"uint256","internalType":"uint256"},{"name":"_minUsdg","type":"uint256","internalType":"uint256"},{"name":"_minGlp","type":"uint256","internalType":"uint256"}],"outputs":[{"name":"","type":"uint256","internalType":"uint256"}],"stateMutability":"nonpayable"},{"type":"function","name":"poolAmounts","inputs":[{"name":"","type":"address","internalType":"address"}],"outputs":[{"name":"","type":"uint256","internalType":"uint256"}],"stateMutability":"view"},{"type":"function","name":"reservedAmounts","inputs":[{"name":"","type":"address","internalType":"address"}],"outputs":[{"name":"","type":"uint256","internalType":"uint256"}],"stateMutability":"view"},{"type":"function","name":"setAumInUsdg","inputs":[{"name":"amount","type":"uint256","internalType":"uint256"}],"outputs":[],"stateMutability":"nonpayable"},{"type":"function","name":"setPoolAmount","inputs":[{"name":"token","type":"address","internalType":"address"},{"name":"amount","type":"uint256","internalType":"uint256"}],"outputs":[],"stateMutability":"nonpayable"},{"type":"function","name":"setReservedAmount","inputs":[{"name":"token","type":"address","internalType":"address"},{"name":"amount","type":"uint256","internalType":"uint256"}],"outputs":[],"stateMutability":"nonpayable"},{"type":"function","name":"unstakeAndRedeemGlp","inputs":[{"name":"_tokenOut","type":"address","internalType":"address"},{"name":"_glpAmount","type":"uint256","internalType":"uint256"},{"name":"_minOut","type":"uint256","internalType":"uint256"},{"name":"_receiver","type":"address","internalType":"address"}],"outputs":[{"name":"","type":"uint256","internalType":"uint256"}],"stateMutability":"nonpayable"}],"bytecode":{"object":"0x608060405234801561000f575f5ffd5b506040516107aa3803806107aa833981810160405281019061003191906100d4565b805f5f6101000a81548173ffffffffffffffffffffffffffffffffffffffff021916908373ffffffffffffffffffffffffffffffffffffffff160217905550506100ff565b5f5ffd5b5f73ffffffffffffffffffffffffffffffffffffffff82169050919050565b5f6100a38261007a565b9050919050565b6100b381610099565b81146100bd575f5ffd5b50565b5f815190506100ce816100aa565b92915050565b5f602082840312156100e9576100e8610076565b5b5f6100f6848285016100c0565b91505092915050565b61069e8061010c5f395ff3fe608060405234801561000f575f5ffd5b50600436106100a7575f3560e01c806352f55eed1161006f57806352f55eed1461017357806368a0a3e0146101a35780637310bb3c146101d35780638574ab74146101f1578063b69a766b1461020f578063c3c7b9e91461022b576100a7565b80630f3aa554146100ab578063184ec3ed146100db578063364e2311146100f75780633ed0c85e14610127578063440d828a14610143575b5f5ffd5b6100c560048036038101906100c09190610410565b61025b565b6040516100d29190610483565b60405180910390f35b6100f560048036038101906100f0919061049c565b610267565b005b610111600480360381019061010c91906104da565b6102ad565b60405161011e9190610483565b60405180910390f35b610141600480360381019061013c919061053e565b6102b9565b005b61015d60048036038101906101589190610569565b6102c3565b60405161016a9190610483565b60405180910390f35b61018d60048036038101906101889190610569565b6102da565b60405161019a9190610483565b60405180910390f35b6101bd60048036038101906101b891906105c9565b6102ef565b6040516101ca9190610483565b60405180910390f35b6101db6102fa565b6040516101e89190610483565b60405180910390f35b6101f9610300565b604051610206919061064f565b60405180910390f35b6102296004803603810190610224919061049c565b610324565b005b61024560048036038101906102409190610569565b61036a565b6040516102529190610483565b60405180910390f35b5f839050949350505050565b8060015f8473ffffffffffffffffffffffffffffffffffffffff1673ffffffffffffffffffffffffffffffffffffffff1681526020019081526020015f20819055505050565b5f839050949350505050565b8060038190555050565b5f6d314dc6448d9338c15b0a000000009050919050565b6001602052805f5260405f205f915090505481565b5f6003549050919050565b60035481565b5f5f9054906101000a900473ffffffffffffffffffffffffffffffffffffffff1681565b8060025f8473ffffffffffffffffffffffffffffffffffffffff1673ffffffffffffffffffffffffffffffffffffffff1681526020019081526020015f20819055505050565b6002602052805f5260405f205f915090505481565b5f5ffd5b5f73ffffffffffffffffffffffffffffffffffffffff82169050919050565b5f6103ac82610383565b9050919050565b6103bc816103a2565b81146103c6575f5ffd5b50565b5f813590506103d7816103b3565b92915050565b5f819050919050565b6103ef816103dd565b81146103f9575f5ffd5b50565b5f8135905061040a816103e6565b92915050565b5f5f5f5f608085870312156104285761042761037f565b5b5f610435878288016103c9565b9450506020610446878288016103fc565b9350506040610457878288016103fc565b9250506060610468878288016103c9565b91505092959194509250565b61047d816103dd565b82525050565b5f6020820190506104965f830184610474565b92915050565b5f5f604083850312156104b2576104b161037f565b5b5f6104bf858286016103c9565b92505060206104d0858286016103fc565b9150509250929050565b5f5f5f5f608085870312156104f2576104f161037f565b5b5f6104ff878288016103c9565b9450506020610510878288016103fc565b9350506040610521878288016103fc565b9250506060610532878288016103fc565b91505092959194509250565b5f602082840312156105535761055261037f565b5b5f610560848285016103fc565b91505092915050565b5f6020828403121561057e5761057d61037f565b5b5f61058b848285016103c9565b91505092915050565b5f8115159050919050565b6105a881610594565b81146105b2575f5ffd5b50565b5f813590506105c38161059f565b92915050565b5f602082840312156105de576105dd61037f565b5b5f6105eb848285016105b5565b91505092915050565b5f819050919050565b5f61061761061261060d84610383565b6105f4565b610383565b9050919050565b5f610628826105fd565b9050919050565b5f6106398261061e565b9050919050565b6106498161062f565b82525050565b5f6020820190506106625f830184610640565b9291505056fea2646970667358221220a717371363061edd57d982d6da96513cb4d1bcc77f0d71611bd4da6dd694d2d364736f6c634300081e0033","linkReferences":{}},"methodIdentifiers":{"aumInUsdg()":"7310bb3c","getAumInUsdg(bool)":"68a0a3e0","getGlobalShortAveragePrice(address)":"440d828a","glpToken()":"8574ab74","mintAndStakeGlp(address,uint256,uint256,uint256)":"364e2311","poolAmounts(address)":"52f55eed","reservedAmounts(address)":"c3c7b9e9","setAumInUsdg(uint256)":"3ed0c85e","setPoolAmount(address,uint256)":"184ec3ed","setReservedAmount(address,uint256)":"b69a766b","unstakeAndRedeemGlp(address,uint256,uint256,address)":"0f3aa554"},"id":19}