{"abi":[{"type":"constructor","inputs":[{"name":"_token","type":"address","internalType":"address"}],"stateMutability":"nonpayable"},{"type":"function","name":"INTEREST_DENOMINATOR","inputs":[],"outputs":[{"name":"","type":"uint256","internalType":"uint256"}],"stateMutability":"view"},{"type":"function","name":"INTEREST_RATE","inputs":[],"outputs":[{"name":"","type":"uint256","internalType":"uint256"}],"stateMutability":"view"},{"type":"function","name":"borrow","inputs":[{"name":"amount","type":"uint256","internalType":"uint256"}],"outputs":[],"stateMutability":"nonpayable"},{"type":"function","name":"borrowed","inputs":[{"name":"","type":"address","internalType":"address"}],"outputs":[{"name":"","type":"uint256","internalType":"uint256"}],"stateMutability":"view"},{"type":"function","name":"deposit","inputs":[{"name":"amount","type":"uint256","internalType":"uint256"}],"outputs":[],"stateMutability":"nonpayable"},{"type":"function","name":"deposits","inputs":[{"name":"","type":"address","internalType":"address"}],"outputs":[{"name":"","type":"uint256","internalType":"uint256"}],"stateMutability":"view"},{"type":"function","name":"forceUpdateInterest","inputs":[{"name":"user","type":"address","internalType":"address"}],"outputs":[],"stateMutability":"nonpayable"},{"type":"function","name":"getAvailableToBorrow","inputs":[{"name":"user","type":"address","internalType":"address"}],"outputs":[{"name":"","type":"uint256","internalType":"uint256"}],"stateMutability":"view"},{"type":"function","name":"lastInterestUpdate","inputs":[{"name":"","type":"address","internalType":"address"}],"outputs":[{"name":"","type":"uint256","internalType":"uint256"}],"stateMutability":"view"},{"type":"function","name":"repay","inputs":[{"name":"amount","type":"uint256","internalType":"uint256"}],"outputs":[],"stateMutability":"nonpayable"},{"type":"function","name":"token","inputs":[],"outputs":[{"name":"","type":"address","internalType":"contract IERC20"}],"stateMutability":"view"},{"type":"function","name":"withdraw","inputs":[{"name":"amount","type":"uint256","internalType":"uint256"}],"outputs":[],"stateMutability":"nonpayable"},{"type":"event","name":"Borrow","inputs":[{"name":"user","type":"address","indexed":true,"internalType":"address"},{"name":"amount","type":"uint256","indexed":false,"internalType":"uint256"}],"anonymous":false},{"type":"event","name":"Deposit","inputs":[{"name":"user","type":"address","indexed":true,"internalType":"address"},{"name":"amount","type":"uint256","indexed":false,"internalType":"uint256"}],"anonymous":false},{"type":"event","name":"Repay","inputs":[{"name":"user","type":"address","indexed":true,"internalType":"address"},{"name":"amount","type":"uint256","indexed":false,"internalType":"uint256"}],"anonymous":false}],"bytecode":{"object":"0x608060405234801561000f575f5ffd5b506040516112b83803806112b8833981810160405281019061003191906100d4565b805f5f6101000a81548173ffffffffffffffffffffffffffffffffffffffff021916908373ffffffffffffffffffffffffffffffffffffffff160217905550506100ff565b5f5ffd5b5f73ffffffffffffffffffffffffffffffffffffffff82169050919050565b5f6100a38261007a565b9050919050565b6100b381610099565b81146100bd575f5ffd5b50565b5f815190506100ce816100aa565b92915050565b5f602082840312156100e9576100e8610076565b5b5f6100f6848285016100c0565b91505092915050565b6111ac8061010c5f395ff3fe608060405234801561000f575f5ffd5b50600436106100b2575f3560e01c8063c5ebeaec1161006f578063c5ebeaec14610188578063f49b2770146101a4578063f75bff2d146101c0578063fade3496146101de578063fc0c546a1461020e578063fc7e286d1461022c576100b2565b80630941cb3d146100b65780632e1a7d4d146100e6578063371fd8e6146101025780635b72a33a1461011e57806362adf0a21461013c578063b6b55f251461016c575b5f5ffd5b6100d060048036038101906100cb9190610d0d565b61025c565b6040516100dd9190610d50565b60405180910390f35b61010060048036038101906100fb9190610d93565b610271565b005b61011c60048036038101906101179190610d93565b6103aa565b005b61012661056c565b6040516101339190610d50565b60405180910390f35b61015660048036038101906101519190610d0d565b610571565b6040516101639190610d50565b60405180910390f35b61018660048036038101906101819190610d93565b6106e3565b005b6101a2600480360381019061019d9190610d93565b6108e7565b005b6101be60048036038101906101b99190610d0d565b610af7565b005b6101c8610b03565b6040516101d59190610d50565b60405180910390f35b6101f860048036038101906101f39190610d0d565b610b08565b6040516102059190610d50565b60405180910390f35b610216610b1d565b6040516102239190610e19565b60405180910390f35b61024660048036038101906102419190610d0d565b610b41565b6040516102539190610d50565b60405180910390f35b6002602052805f5260405f205f915090505481565b61027a33610b56565b8060015f3373ffffffffffffffffffffffffffffffffffffffff1673ffffffffffffffffffffffffffffffffffffffff1681526020019081526020015f205f8282546102c69190610e5f565b925050819055505f5f9054906101000a900473ffffffffffffffffffffffffffffffffffffffff1673ffffffffffffffffffffffffffffffffffffffff1663a9059cbb33836040518363ffffffff1660e01b8152600401610328929190610ea1565b6020604051808303815f875af1158015610344573d5f5f3e3d5ffd5b505050506040513d601f19601f820116820180604052508101906103689190610efd565b6103a7576040517f08c379a000000000000000000000000000000000000000000000000000000000815260040161039e90610f82565b60405180910390fd5b50565b8060025f3373ffffffffffffffffffffffffffffffffffffffff1673ffffffffffffffffffffffffffffffffffffffff1681526020019081526020015f205f8282546103f69190610e5f565b925050819055504260035f3373ffffffffffffffffffffffffffffffffffffffff1673ffffffffffffffffffffffffffffffffffffffff1681526020019081526020015f20819055505f5f9054906101000a900473ffffffffffffffffffffffffffffffffffffffff1673ffffffffffffffffffffffffffffffffffffffff166323b872dd3330846040518463ffffffff1660e01b815260040161049c93929190610fa0565b6020604051808303815f875af11580156104b8573d5f5f3e3d5ffd5b505050506040513d601f19601f820116820180604052508101906104dc9190610efd565b61051b576040517f08c379a000000000000000000000000000000000000000000000000000000000815260040161051290610f82565b60405180910390fd5b3373ffffffffffffffffffffffffffffffffffffffff167f5c16de4f8b59bd9caf0f49a545f25819a895ed223294290b408242e72a594231826040516105619190610d50565b60405180910390a250565b600581565b5f5f60035f8473ffffffffffffffffffffffffffffffffffffffff1673ffffffffffffffffffffffffffffffffffffffff1681526020019081526020015f2054426105bc9190610e5f565b90505f60646301e133806105d09190610fd5565b82600560025f8873ffffffffffffffffffffffffffffffffffffffff1673ffffffffffffffffffffffffffffffffffffffff1681526020019081526020015f205461061b9190610fd5565b6106259190610fd5565b61062f9190611043565b90508060025f8673ffffffffffffffffffffffffffffffffffffffff1673ffffffffffffffffffffffffffffffffffffffff1681526020019081526020015f205461067a9190611073565b6064604b60015f8873ffffffffffffffffffffffffffffffffffffffff1673ffffffffffffffffffffffffffffffffffffffff1681526020019081526020015f20546106c69190610fd5565b6106d09190611043565b6106da9190610e5f565b92505050919050565b5f8111610725576040517f08c379a000000000000000000000000000000000000000000000000000000000815260040161071c906110f0565b60405180910390fd5b5f5f9054906101000a900473ffffffffffffffffffffffffffffffffffffffff1673ffffffffffffffffffffffffffffffffffffffff166323b872dd3330846040518463ffffffff1660e01b815260040161078293929190610fa0565b6020604051808303815f875af115801561079e573d5f5f3e3d5ffd5b505050506040513d601f19601f820116820180604052508101906107c29190610efd565b610801576040517f08c379a00000000000000000000000000000000000000000000000000000000081526004016107f890610f82565b60405180910390fd5b8060015f3373ffffffffffffffffffffffffffffffffffffffff1673ffffffffffffffffffffffffffffffffffffffff1681526020019081526020015f205f82825461084d9190611073565b925050819055504260035f3373ffffffffffffffffffffffffffffffffffffffff1673ffffffffffffffffffffffffffffffffffffffff1681526020019081526020015f20819055503373ffffffffffffffffffffffffffffffffffffffff167fe1fffcc4923d04b559f4d29a8bfc6cda04eb5b0d3c460751c2402c5c5cc9109c826040516108dc9190610d50565b60405180910390a250565b5f6108f133610571565b905080821115610936576040517f08c379a000000000000000000000000000000000000000000000000000000000815260040161092d90611158565b60405180910390fd5b8160025f3373ffffffffffffffffffffffffffffffffffffffff1673ffffffffffffffffffffffffffffffffffffffff1681526020019081526020015f205f8282546109829190611073565b925050819055504260035f3373ffffffffffffffffffffffffffffffffffffffff1673ffffffffffffffffffffffffffffffffffffffff1681526020019081526020015f20819055505f5f9054906101000a900473ffffffffffffffffffffffffffffffffffffffff1673ffffffffffffffffffffffffffffffffffffffff1663a9059cbb33846040518363ffffffff1660e01b8152600401610a26929190610ea1565b6020604051808303815f875af1158015610a42573d5f5f3e3d5ffd5b505050506040513d601f19601f82011682018060405250810190610a669190610efd565b610aa5576040517f08c379a0000000000000000000000000000000000000000000000000000000008152600401610a9c90610f82565b60405180910390fd5b3373ffffffffffffffffffffffffffffffffffffffff167fcbc04eca7e9da35cb1393a6135a199ca52e450d5e9251cbd99f7847d33a3675083604051610aeb9190610d50565b60405180910390a25050565b610b0081610b56565b50565b606481565b6003602052805f5260405f205f915090505481565b5f5f9054906101000a900473ffffffffffffffffffffffffffffffffffffffff1681565b6001602052805f5260405f205f915090505481565b5f60035f8373ffffffffffffffffffffffffffffffffffffffff1673ffffffffffffffffffffffffffffffffffffffff1681526020019081526020015f205442610ba09190610e5f565b90505f60646301e13380610bb49190610fd5565b82600560025f8773ffffffffffffffffffffffffffffffffffffffff1673ffffffffffffffffffffffffffffffffffffffff1681526020019081526020015f2054610bff9190610fd5565b610c099190610fd5565b610c139190611043565b90508060025f8573ffffffffffffffffffffffffffffffffffffffff1673ffffffffffffffffffffffffffffffffffffffff1681526020019081526020015f205f828254610c619190611073565b925050819055504260035f8573ffffffffffffffffffffffffffffffffffffffff1673ffffffffffffffffffffffffffffffffffffffff1681526020019081526020015f2081905550505050565b5f5ffd5b5f73ffffffffffffffffffffffffffffffffffffffff82169050919050565b5f610cdc82610cb3565b9050919050565b610cec81610cd2565b8114610cf6575f5ffd5b50565b5f81359050610d0781610ce3565b92915050565b5f60208284031215610d2257610d21610caf565b5b5f610d2f84828501610cf9565b91505092915050565b5f819050919050565b610d4a81610d38565b82525050565b5f602082019050610d635f830184610d41565b92915050565b610d7281610d38565b8114610d7c575f5ffd5b50565b5f81359050610d8d81610d69565b92915050565b5f60208284031215610da857610da7610caf565b5b5f610db584828501610d7f565b91505092915050565b5f819050919050565b5f610de1610ddc610dd784610cb3565b610dbe565b610cb3565b9050919050565b5f610df282610dc7565b9050919050565b5f610e0382610de8565b9050919050565b610e1381610df9565b82525050565b5f602082019050610e2c5f830184610e0a565b92915050565b7f4e487b71000000000000000000000000000000000000000000000000000000005f52601160045260245ffd5b5f610e6982610d38565b9150610e7483610d38565b9250828203905081811115610e8c57610e8b610e32565b5b92915050565b610e9b81610cd2565b82525050565b5f604082019050610eb45f830185610e92565b610ec16020830184610d41565b9392505050565b5f8115159050919050565b610edc81610ec8565b8114610ee6575f5ffd5b50565b5f81519050610ef781610ed3565b92915050565b5f60208284031215610f1257610f11610caf565b5b5f610f1f84828501610ee9565b91505092915050565b5f82825260208201905092915050565b7f5472616e73666572206661696c656400000000000000000000000000000000005f82015250565b5f610f6c600f83610f28565b9150610f7782610f38565b602082019050919050565b5f6020820190508181035f830152610f9981610f60565b9050919050565b5f606082019050610fb35f830186610e92565b610fc06020830185610e92565b610fcd6040830184610d41565b949350505050565b5f610fdf82610d38565b9150610fea83610d38565b9250828202610ff881610d38565b9150828204841483151761100f5761100e610e32565b5b5092915050565b7f4e487b71000000000000000000000000000000000000000000000000000000005f52601260045260245ffd5b5f61104d82610d38565b915061105883610d38565b92508261106857611067611016565b5b828204905092915050565b5f61107d82610d38565b915061108883610d38565b92508282019050808211156110a05761109f610e32565b5b92915050565b7f416d6f756e74206d7573742062652067726561746572207468616e20300000005f82015250565b5f6110da601d83610f28565b91506110e5826110a6565b602082019050919050565b5f6020820190508181035f830152611107816110ce565b9050919050565b7f496e73756666696369656e7420636f6c6c61746572616c0000000000000000005f82015250565b5f611142601783610f28565b915061114d8261110e565b602082019050919050565b5f6020820190508181035f83015261116f81611136565b905091905056fea26469706673582212208e6a26e3eec98ed0272a328a0e1419949ec4cd1193152a951a5db46cf168374664736f6c634300081e0033","linkReferences":{}},"methodIdentifiers":{"INTEREST_DENOMINATOR()":"f75bff2d","INTEREST_RATE()":"5b72a33a","borrow(uint256)":"c5ebeaec","borrowed(address)":"0941cb3d","deposit(uint256)":"b6b55f25","deposits(address)":"fc7e286d","forceUpdateInterest(address)":"f49b2770","getAvailableToBorrow(address)":"62adf0a2","lastInterestUpdate(address)":"fade3496","repay(uint256)":"371fd8e6","token()":"fc0c546a","withdraw(uint256)":"2e1a7d4d"},"id":20}