{"abi":[{"type":"constructor","inputs":[{"name":"_token","type":"address","internalType":"address"}],"stateMutability":"nonpayable"},{"type":"function","name":"borrow","inputs":[{"name":"amount","type":"uint256","internalType":"uint256"}],"outputs":[],"stateMutability":"nonpayable"},{"type":"function","name":"borrowed","inputs":[{"name":"","type":"address","internalType":"address"}],"outputs":[{"name":"","type":"uint256","internalType":"uint256"}],"stateMutability":"view"},{"type":"function","name":"deposit","inputs":[{"name":"amount","type":"uint256","internalType":"uint256"}],"outputs":[],"stateMutability":"nonpayable"},{"type":"function","name":"deposits","inputs":[{"name":"","type":"address","internalType":"address"}],"outputs":[{"name":"","type":"uint256","internalType":"uint256"}],"stateMutability":"view"},{"type":"function","name":"liquidate","inputs":[{"name":"user","type":"address","internalType":"address"}],"outputs":[],"stateMutability":"nonpayable"},{"type":"function","name":"token","inputs":[],"outputs":[{"name":"","type":"address","internalType":"contract IERC20"}],"stateMutability":"view"}],"bytecode":{"object":"0x608060405234801561000f575f5ffd5b50604051610e8b380380610e8b833981810160405281019061003191906100d4565b805f5f6101000a81548173ffffffffffffffffffffffffffffffffffffffff021916908373ffffffffffffffffffffffffffffffffffffffff160217905550506100ff565b5f5ffd5b5f73ffffffffffffffffffffffffffffffffffffffff82169050919050565b5f6100a38261007a565b9050919050565b6100b381610099565b81146100bd575f5ffd5b50565b5f815190506100ce816100aa565b92915050565b5f602082840312156100e9576100e8610076565b5b5f6100f6848285016100c0565b91505092915050565b610d7f8061010c5f395ff3fe608060405234801561000f575f5ffd5b5060043610610060575f3560e01c80630941cb3d146100645780632f86556814610094578063b6b55f25146100b0578063c5ebeaec146100cc578063fc0c546a146100e8578063fc7e286d14610106575b5f5ffd5b61007e600480360381019061007991906108b0565b610136565b60405161008b91906108f3565b60405180910390f35b6100ae60048036038101906100a991906108b0565b61014b565b005b6100ca60048036038101906100c59190610936565b61044c565b005b6100e660048036038101906100e19190610936565b61057e565b005b6100f0610819565b6040516100fd91906109bc565b60405180910390f35b610120600480360381019061011b91906108b0565b61083d565b60405161012d91906108f3565b60405180910390f35b6002602052805f5260405f205f915090505481565b5f60025f8373ffffffffffffffffffffffffffffffffffffffff1673ffffffffffffffffffffffffffffffffffffffff1681526020019081526020015f2054116101ca576040517f08c379a00000000000000000000000000000000000000000000000000000000081526004016101c190610a2f565b60405180910390fd5b5f60015f8373ffffffffffffffffffffffffffffffffffffffff1673ffffffffffffffffffffffffffffffffffffffff1681526020019081526020015f205490505f5f5f9054906101000a900473ffffffffffffffffffffffffffffffffffffffff1673ffffffffffffffffffffffffffffffffffffffff166370a08231306040518263ffffffff1660e01b81526004016102659190610a5c565b602060405180830381865afa158015610280573d5f5f3e3d5ffd5b505050506040513d601f19601f820116820180604052508101906102a49190610a89565b9050818110156102e9576040517f08c379a00000000000000000000000000000000000000000000000000000000081526004016102e090610afe565b60405180910390fd5b5f60015f8573ffffffffffffffffffffffffffffffffffffffff1673ffffffffffffffffffffffffffffffffffffffff1681526020019081526020015f20819055505f60025f8573ffffffffffffffffffffffffffffffffffffffff1673ffffffffffffffffffffffffffffffffffffffff1681526020019081526020015f20819055505f5f9054906101000a900473ffffffffffffffffffffffffffffffffffffffff1673ffffffffffffffffffffffffffffffffffffffff1663a9059cbb33846040518363ffffffff1660e01b81526004016103c8929190610b1c565b6020604051808303815f875af11580156103e4573d5f5f3e3d5ffd5b505050506040513d601f19601f820116820180604052508101906104089190610b78565b610447576040517f08c379a000000000000000000000000000000000000000000000000000000000815260040161043e90610bed565b60405180910390fd5b505050565b5f5f9054906101000a900473ffffffffffffffffffffffffffffffffffffffff1673ffffffffffffffffffffffffffffffffffffffff166323b872dd3330846040518463ffffffff1660e01b81526004016104a993929190610c0b565b6020604051808303815f875af11580156104c5573d5f5f3e3d5ffd5b505050506040513d601f19601f820116820180604052508101906104e99190610b78565b610528576040517f08c379a000000000000000000000000000000000000000000000000000000000815260040161051f90610bed565b60405180910390fd5b8060015f3373ffffffffffffffffffffffffffffffffffffffff1673ffffffffffffffffffffffffffffffffffffffff1681526020019081526020015f205f8282546105749190610c6d565b9250508190555050565b60015f3373ffffffffffffffffffffffffffffffffffffffff1673ffffffffffffffffffffffffffffffffffffffff1681526020019081526020015f20546002826105c99190610ca0565b111561060a576040517f08c379a000000000000000000000000000000000000000000000000000000000815260040161060190610d2b565b60405180910390fd5b8060025f3373ffffffffffffffffffffffffffffffffffffffff1673ffffffffffffffffffffffffffffffffffffffff1681526020019081526020015f205f8282546106569190610c6d565b925050819055505f5f5f9054906101000a900473ffffffffffffffffffffffffffffffffffffffff1673ffffffffffffffffffffffffffffffffffffffff166370a08231306040518263ffffffff1660e01b81526004016106b79190610a5c565b602060405180830381865afa1580156106d2573d5f5f3e3d5ffd5b505050506040513d601f19601f820116820180604052508101906106f69190610a89565b90508181101561073b576040517f08c379a000000000000000000000000000000000000000000000000000000000815260040161073290610afe565b60405180910390fd5b5f5f9054906101000a900473ffffffffffffffffffffffffffffffffffffffff1673ffffffffffffffffffffffffffffffffffffffff1663a9059cbb33846040518363ffffffff1660e01b8152600401610796929190610b1c565b6020604051808303815f875af11580156107b2573d5f5f3e3d5ffd5b505050506040513d601f19601f820116820180604052508101906107d69190610b78565b610815576040517f08c379a000000000000000000000000000000000000000000000000000000000815260040161080c90610bed565b60405180910390fd5b5050565b5f5f9054906101000a900473ffffffffffffffffffffffffffffffffffffffff1681565b6001602052805f5260405f205f915090505481565b5f5ffd5b5f73ffffffffffffffffffffffffffffffffffffffff82169050919050565b5f61087f82610856565b9050919050565b61088f81610875565b8114610899575f5ffd5b50565b5f813590506108aa81610886565b92915050565b5f602082840312156108c5576108c4610852565b5b5f6108d28482850161089c565b91505092915050565b5f819050919050565b6108ed816108db565b82525050565b5f6020820190506109065f8301846108e4565b92915050565b610915816108db565b811461091f575f5ffd5b50565b5f813590506109308161090c565b92915050565b5f6020828403121561094b5761094a610852565b5b5f61095884828501610922565b91505092915050565b5f819050919050565b5f61098461097f61097a84610856565b610961565b610856565b9050919050565b5f6109958261096a565b9050919050565b5f6109a68261098b565b9050919050565b6109b68161099c565b82525050565b5f6020820190506109cf5f8301846109ad565b92915050565b5f82825260208201905092915050565b7f4e6f206465627420746f206c69717569646174650000000000000000000000005f82015250565b5f610a196014836109d5565b9150610a24826109e5565b602082019050919050565b5f6020820190508181035f830152610a4681610a0d565b9050919050565b610a5681610875565b82525050565b5f602082019050610a6f5f830184610a4d565b92915050565b5f81519050610a838161090c565b92915050565b5f60208284031215610a9e57610a9d610852565b5b5f610aab84828501610a75565b91505092915050565b7f496e73756666696369656e7420636f6e74726163742062616c616e63650000005f82015250565b5f610ae8601d836109d5565b9150610af382610ab4565b602082019050919050565b5f6020820190508181035f830152610b1581610adc565b9050919050565b5f604082019050610b2f5f830185610a4d565b610b3c60208301846108e4565b9392505050565b5f8115159050919050565b610b5781610b43565b8114610b61575f5ffd5b50565b5f81519050610b7281610b4e565b92915050565b5f60208284031215610b8d57610b8c610852565b5b5f610b9a84828501610b64565b91505092915050565b7f5472616e73666572206661696c656400000000000000000000000000000000005f82015250565b5f610bd7600f836109d5565b9150610be282610ba3565b602082019050919050565b5f6020820190508181035f830152610c0481610bcb565b9050919050565b5f606082019050610c1e5f830186610a4d565b610c2b6020830185610a4d565b610c3860408301846108e4565b949350505050565b7f4e487b71000000000000000000000000000000000000000000000000000000005f52601160045260245ffd5b5f610c77826108db565b9150610c82836108db565b9250828201905080821115610c9a57610c99610c40565b5b92915050565b5f610caa826108db565b9150610cb5836108db565b9250828202610cc3816108db565b91508282048414831517610cda57610cd9610c40565b5b5092915050565b7f496e73756666696369656e7420636f6c6c61746572616c0000000000000000005f82015250565b5f610d156017836109d5565b9150610d2082610ce1565b602082019050919050565b5f6020820190508181035f830152610d4281610d09565b905091905056fea264697066735822122012c7e37feb0ed3f460e89eea1636a44ff982cb91414cda58fe9ae93665df7e2a64736f6c634300081e0033","linkReferences":{}},"methodIdentifiers":{"borrow(uint256)":"c5ebeaec","borrowed(address)":"0941cb3d","deposit(uint256)":"b6b55f25","deposits(address)":"fc7e286d","liquidate(address)":"2f865568","token()":"fc0c546a"},"id":20}