{"abi":[{"type":"function","name":"mintAndStakeGlp","inputs":[{"name":"_token","type":"address","internalType":"address"},{"name":"_amount","type":"uint256","internalType":"uint256"},{"name":"_minUsdg","type":"uint256","internalType":"uint256"},{"name":"_minGlp","type":"uint256","internalType":"uint256"}],"outputs":[{"name":"","type":"uint256","internalType":"uint256"}],"stateMutability":"nonpayable"},{"type":"function","name":"unstakeAndRedeemGlp","inputs":[{"name":"_tokenOut","type":"address","internalType":"address"},{"name":"_glpAmount","type":"uint256","internalType":"uint256"},{"name":"_minOut","type":"uint256","internalType":"uint256"},{"name":"_receiver","type":"address","internalType":"address"}],"outputs":[{"name":"","type":"uint256","internalType":"uint256"}],"stateMutability":"nonpayable"}],"bytecode":{"object":"0x6080604052348015600e575f5ffd5b506102678061001c5f395ff3fe608060405234801561000f575f5ffd5b5060043610610034575f3560e01c80630f3aa55414610038578063364e231114610068575b5f5ffd5b610052600480360381019061004d9190610141565b610098565b60405161005f91906101b4565b60405180910390f35b610082600480360381019061007d91906101cd565b6100a4565b60405161008f91906101b4565b60405180910390f35b5f839050949350505050565b5f839050949350505050565b5f5ffd5b5f73ffffffffffffffffffffffffffffffffffffffff82169050919050565b5f6100dd826100b4565b9050919050565b6100ed816100d3565b81146100f7575f5ffd5b50565b5f81359050610108816100e4565b92915050565b5f819050919050565b6101208161010e565b811461012a575f5ffd5b50565b5f8135905061013b81610117565b92915050565b5f5f5f5f60808587031215610159576101586100b0565b5b5f610166878288016100fa565b94505060206101778782880161012d565b93505060406101888782880161012d565b9250506060610199878288016100fa565b91505092959194509250565b6101ae8161010e565b82525050565b5f6020820190506101c75f8301846101a5565b92915050565b5f5f5f5f608085870312156101e5576101e46100b0565b5b5f6101f2878288016100fa565b94505060206102038782880161012d565b93505060406102148782880161012d565b92505060606102258782880161012d565b9150509295919450925056fea264697066735822122073cb9353d569478059d469f393f3f9bde1b90093e64a3b82da7161ff7d26500864736f6c634300081e0033","linkReferences":{}},"methodIdentifiers":{"mintAndStakeGlp(address,uint256,uint256,uint256)":"364e2311","unstakeAndRedeemGlp(address,uint256,uint256,address)":"0f3aa554"},"id":23}