{"abi":[{"type":"constructor","inputs":[],"stateMutability":"nonpayable"},{"type":"function","name":"callWithSelector","inputs":[{"name":"selector","type":"bytes4","internalType":"bytes4"},{"name":"target","type":"address","internalType":"address"}],"outputs":[],"stateMutability":"payable"},{"type":"function","name":"owner","inputs":[],"outputs":[{"name":"","type":"address","internalType":"address"}],"stateMutability":"view"}],"bytecode":{"object":"0x6080604052348015600e575f5ffd5b50335f5f6101000a81548173ffffffffffffffffffffffffffffffffffffffff021916908373ffffffffffffffffffffffffffffffffffffffff1602179055506103d58061005b5f395ff3fe608060405260043610610028575f3560e01c80638da5cb5b1461002c578063b738bf6914610056575b5f5ffd5b348015610037575f5ffd5b50610040610072565b60405161004d91906101e5565b60405180910390f35b610070600480360381019061006b9190610281565b610096565b005b5f5f9054906101000a900473ffffffffffffffffffffffffffffffffffffffff1681565b5f8173ffffffffffffffffffffffffffffffffffffffff1683604051602401604051602081830303815290604052907bffffffffffffffffffffffffffffffffffffffffffffffffffffffff19166020820180517bffffffffffffffffffffffffffffffffffffffffffffffffffffffff838183161783525050505060405161011f9190610311565b5f604051808303815f865af19150503d805f8114610158576040519150601f19603f3d011682016040523d82523d5f602084013e61015d565b606091505b50509050806101a1576040517f08c379a000000000000000000000000000000000000000000000000000000000815260040161019890610381565b60405180910390fd5b505050565b5f73ffffffffffffffffffffffffffffffffffffffff82169050919050565b5f6101cf826101a6565b9050919050565b6101df816101c5565b82525050565b5f6020820190506101f85f8301846101d6565b92915050565b5f5ffd5b5f7fffffffff0000000000000000000000000000000000000000000000000000000082169050919050565b61023681610202565b8114610240575f5ffd5b50565b5f813590506102518161022d565b92915050565b610260816101c5565b811461026a575f5ffd5b50565b5f8135905061027b81610257565b92915050565b5f5f60408385031215610297576102966101fe565b5b5f6102a485828601610243565b92505060206102b58582860161026d565b9150509250929050565b5f81519050919050565b5f81905092915050565b8281835e5f83830152505050565b5f6102eb826102bf565b6102f581856102c9565b93506103058185602086016102d3565b80840191505092915050565b5f61031c82846102e1565b915081905092915050565b5f82825260208201905092915050565b7f43616c6c206661696c65640000000000000000000000000000000000000000005f82015250565b5f61036b600b83610327565b915061037682610337565b602082019050919050565b5f6020820190508181035f8301526103988161035f565b905091905056fea264697066735822122020a215e99f0155a90caa89c1a75cb271382afdc000d8ca7ea302497419576db864736f6c634300081e0033","linkReferences":{}},"methodIdentifiers":{"callWithSelector(bytes4,address)":"b738bf69","owner()":"8da5cb5b"},"id":19}