{"abi":[{"type":"constructor","inputs":[],"stateMutability":"nonpayable"},{"type":"receive","stateMutability":"payable"},{"type":"function","name":"balances","inputs":[{"name":"","type":"address","internalType":"address"}],"outputs":[{"name":"","type":"uint256","internalType":"uint256"}],"stateMutability":"view"},{"type":"function","name":"callbackTarget","inputs":[],"outputs":[{"name":"","type":"address","internalType":"address"}],"stateMutability":"view"},{"type":"function","name":"closePosition","inputs":[{"name":"user","type":"address","internalType":"address"}],"outputs":[],"stateMutability":"nonpayable"},{"type":"function","name":"deposit","inputs":[],"outputs":[],"stateMutability":"payable"},{"type":"function","name":"getProfit","inputs":[],"outputs":[{"name":"","type":"uint256","internalType":"uint256"}],"stateMutability":"view"},{"type":"function","name":"hasPosition","inputs":[{"name":"","type":"address","internalType":"address"}],"outputs":[{"name":"","type":"bool","internalType":"bool"}],"stateMutability":"view"},{"type":"function","name":"setCallbackTarget","inputs":[{"name":"target","type":"address","internalType":"address"}],"outputs":[],"stateMutability":"nonpayable"},{"type":"function","name":"setPosition","inputs":[{"name":"user","type":"address","internalType":"address"}],"outputs":[],"stateMutability":"nonpayable"},{"type":"function","name":"withdraw","inputs":[{"name":"amount","type":"uint256","internalType":"uint256"}],"outputs":[],"stateMutability":"nonpayable"}],"bytecode":{"object":"0x6080604052348015600e575f5ffd5b50610bfc8061001c5f395ff3fe608060405260043610610089575f3560e01c80632f86e2dd116100585780632f86e2dd1461015c57806342f5355114610184578063679dffb4146101ac578063d0e30db0146101d6578063e4ec8007146101e057610090565b80631334becc14610094578063225c1369146100d057806327e235e3146100f85780632e1a7d4d1461013457610090565b3661009057005b5f5ffd5b34801561009f575f5ffd5b506100ba60048036038101906100b5919061085b565b61020a565b6040516100c791906108a0565b60405180910390f35b3480156100db575f5ffd5b506100f660048036038101906100f1919061085b565b610227565b005b348015610103575f5ffd5b5061011e6004803603810190610119919061085b565b61027e565b60405161012b91906108d1565b60405180910390f35b34801561013f575f5ffd5b5061015a60048036038101906101559190610914565b610292565b005b348015610167575f5ffd5b50610182600480360381019061017d919061085b565b610570565b005b34801561018f575f5ffd5b506101aa60048036038101906101a5919061085b565b61073a565b005b3480156101b7575f5ffd5b506101c061077d565b6040516101cd91906108d1565b60405180910390f35b6101de610784565b005b3480156101eb575f5ffd5b506101f46107d8565b604051610201919061094e565b60405180910390f35b6001602052805f5260405f205f915054906101000a900460ff1681565b6001805f8373ffffffffffffffffffffffffffffffffffffffff1673ffffffffffffffffffffffffffffffffffffffff1681526020019081526020015f205f6101000a81548160ff02191690831515021790555050565b5f602052805f5260405f205f915090505481565b805f5f3373ffffffffffffffffffffffffffffffffffffffff1673ffffffffffffffffffffffffffffffffffffffff1681526020019081526020015f20541015610311576040517f08c379a0000000000000000000000000000000000000000000000000000000008152600401610308906109c1565b60405180910390fd5b805f5f3373ffffffffffffffffffffffffffffffffffffffff1673ffffffffffffffffffffffffffffffffffffffff1681526020019081526020015f205f82825461035c9190610a0c565b925050819055505f3373ffffffffffffffffffffffffffffffffffffffff168260405161038890610a6c565b5f6040518083038185875af1925050503d805f81146103c2576040519150601f19603f3d011682016040523d82523d5f602084013e6103c7565b606091505b505090508061040b576040517f08c379a000000000000000000000000000000000000000000000000000000000815260040161040290610aca565b60405180910390fd5b5f73ffffffffffffffffffffffffffffffffffffffff1660025f9054906101000a900473ffffffffffffffffffffffffffffffffffffffff1673ffffffffffffffffffffffffffffffffffffffff161461056c575f60025f9054906101000a900473ffffffffffffffffffffffffffffffffffffffff1673ffffffffffffffffffffffffffffffffffffffff166040516024016040516020818303038152906040527f47f804e0000000000000000000000000000000000000000000000000000000007bffffffffffffffffffffffffffffffffffffffffffffffffffffffff19166020820180517bffffffffffffffffffffffffffffffffffffffffffffffffffffffff83818316178352505050506040516105289190610b30565b5f604051808303815f865af19150503d805f8114610561576040519150601f19603f3d011682016040523d82523d5f602084013e610566565b606091505b50509050505b5050565b5f60015f8373ffffffffffffffffffffffffffffffffffffffff1673ffffffffffffffffffffffffffffffffffffffff1681526020019081526020015f205f6101000a81548160ff0219169083151502179055505f73ffffffffffffffffffffffffffffffffffffffff1660025f9054906101000a900473ffffffffffffffffffffffffffffffffffffffff1673ffffffffffffffffffffffffffffffffffffffff1614610737575f60025f9054906101000a900473ffffffffffffffffffffffffffffffffffffffff1673ffffffffffffffffffffffffffffffffffffffff165f5f1b60015f60405160240161066993929190610b5e565b6040516020818303038152906040527fedf3daec000000000000000000000000000000000000000000000000000000007bffffffffffffffffffffffffffffffffffffffffffffffffffffffff19166020820180517bffffffffffffffffffffffffffffffffffffffffffffffffffffffff83818316178352505050506040516106f39190610b30565b5f604051808303815f865af19150503d805f811461072c576040519150601f19603f3d011682016040523d82523d5f602084013e610731565b606091505b50509050505b50565b8060025f6101000a81548173ffffffffffffffffffffffffffffffffffffffff021916908373ffffffffffffffffffffffffffffffffffffffff16021790555050565b5f47905090565b345f5f3373ffffffffffffffffffffffffffffffffffffffff1673ffffffffffffffffffffffffffffffffffffffff1681526020019081526020015f205f8282546107cf9190610b93565b92505081905550565b60025f9054906101000a900473ffffffffffffffffffffffffffffffffffffffff1681565b5f5ffd5b5f73ffffffffffffffffffffffffffffffffffffffff82169050919050565b5f61082a82610801565b9050919050565b61083a81610820565b8114610844575f5ffd5b50565b5f8135905061085581610831565b92915050565b5f602082840312156108705761086f6107fd565b5b5f61087d84828501610847565b91505092915050565b5f8115159050919050565b61089a81610886565b82525050565b5f6020820190506108b35f830184610891565b92915050565b5f819050919050565b6108cb816108b9565b82525050565b5f6020820190506108e45f8301846108c2565b92915050565b6108f3816108b9565b81146108fd575f5ffd5b50565b5f8135905061090e816108ea565b92915050565b5f60208284031215610929576109286107fd565b5b5f61093684828501610900565b91505092915050565b61094881610820565b82525050565b5f6020820190506109615f83018461093f565b92915050565b5f82825260208201905092915050565b7f496e73756666696369656e742062616c616e63650000000000000000000000005f82015250565b5f6109ab601483610967565b91506109b682610977565b602082019050919050565b5f6020820190508181035f8301526109d88161099f565b9050919050565b7f4e487b71000000000000000000000000000000000000000000000000000000005f52601160045260245ffd5b5f610a16826108b9565b9150610a21836108b9565b9250828203905081811115610a3957610a386109df565b5b92915050565b5f81905092915050565b50565b5f610a575f83610a3f565b9150610a6282610a49565b5f82019050919050565b5f610a7682610a4c565b9150819050919050565b7f5472616e73666572206661696c656400000000000000000000000000000000005f82015250565b5f610ab4600f83610967565b9150610abf82610a80565b602082019050919050565b5f6020820190508181035f830152610ae181610aa8565b9050919050565b5f81519050919050565b8281835e5f83830152505050565b5f610b0a82610ae8565b610b148185610a3f565b9350610b24818560208601610af2565b80840191505092915050565b5f610b3b8284610b00565b915081905092915050565b5f819050919050565b610b5881610b46565b82525050565b5f606082019050610b715f830186610b4f565b610b7e6020830185610891565b610b8b6040830184610891565b949350505050565b5f610b9d826108b9565b9150610ba8836108b9565b9250828201905080821115610bc057610bbf6109df565b5b9291505056fea26469706673582212205ecc4733f7df57acc520c5b67215b204e1167d1e2caa955a455278b07c943af464736f6c634300081e0033","linkReferences":{}},"methodIdentifiers":{"balances(address)":"27e235e3","callbackTarget()":"e4ec8007","closePosition(address)":"2f86e2dd","deposit()":"d0e30db0","getProfit()":"679dffb4","hasPosition(address)":"1334becc","setCallbackTarget(address)":"42f53551","setPosition(address)":"225c1369","withdraw(uint256)":"2e1a7d4d"},"id":25}