{"abi":[{"type":"constructor","inputs":[{"name":"_orderBook","type":"address","internalType":"address"}],"stateMutability":"nonpayable"},{"type":"function","name":"executeDecreaseOrder","inputs":[{"name":"_account","type":"address","internalType":"address"},{"name":"_orderIndex","type":"uint256","internalType":"uint256"},{"name":"_feeReceiver","type":"address","internalType":"address payable"}],"outputs":[],"stateMutability":"nonpayable"},{"type":"function","name":"executeIncreaseOrder","inputs":[{"name":"_account","type":"address","internalType":"address"},{"name":"_orderIndex","type":"uint256","internalType":"uint256"},{"name":"_feeReceiver","type":"address","internalType":"address payable"}],"outputs":[],"stateMutability":"nonpayable"},{"type":"function","name":"orderBook","inputs":[],"outputs":[{"name":"","type":"address","internalType":"address"}],"stateMutability":"view"}],"bytecode":{"object":"0x608060405234801561000f575f5ffd5b506040516107a43803806107a4833981810160405281019061003191906100d4565b805f5f6101000a81548173ffffffffffffffffffffffffffffffffffffffff021916908373ffffffffffffffffffffffffffffffffffffffff160217905550506100ff565b5f5ffd5b5f73ffffffffffffffffffffffffffffffffffffffff82169050919050565b5f6100a38261007a565b9050919050565b6100b381610099565b81146100bd575f5ffd5b50565b5f815190506100ce816100aa565b92915050565b5f602082840312156100e9576100e8610076565b5b5f6100f6848285016100c0565b91505092915050565b6106988061010c5f395ff3fe608060405234801561000f575f5ffd5b506004361061003f575f3560e01c806311d9444a14610043578063776af5ba1461005f578063d38ab5191461007d575b5f5ffd5b61005d600480360381019061005891906104a3565b610099565b005b610067610226565b6040516100749190610502565b60405180910390f35b610097600480360381019061009291906104a3565b61024a565b005b5f8373ffffffffffffffffffffffffffffffffffffffff165f5f1b60015f6040516024016100c99392919061054d565b6040516020818303038152906040527fedf3daec000000000000000000000000000000000000000000000000000000007bffffffffffffffffffffffffffffffffffffffffffffffffffffffff19166020820180517bffffffffffffffffffffffffffffffffffffffffffffffffffffffff838183161783525050505060405161015391906105d4565b5f604051808303815f865af19150503d805f811461018c576040519150601f19603f3d011682016040523d82523d5f602084013e610191565b606091505b50509050806101d5576040517f08c379a00000000000000000000000000000000000000000000000000000000081526004016101cc90610644565b60405180910390fd5b8173ffffffffffffffffffffffffffffffffffffffff166108fc660aa87bee53800090811502906040515f60405180830381858888f1935050505015801561021f573d5f5f3e3d5ffd5b5050505050565b5f5f9054906101000a900473ffffffffffffffffffffffffffffffffffffffff1681565b5f8373ffffffffffffffffffffffffffffffffffffffff165f5f1b60018060405160240161027a9392919061054d565b6040516020818303038152906040527fedf3daec000000000000000000000000000000000000000000000000000000007bffffffffffffffffffffffffffffffffffffffffffffffffffffffff19166020820180517bffffffffffffffffffffffffffffffffffffffffffffffffffffffff838183161783525050505060405161030491906105d4565b5f604051808303815f865af19150503d805f811461033d576040519150601f19603f3d011682016040523d82523d5f602084013e610342565b606091505b5050905080610386576040517f08c379a000000000000000000000000000000000000000000000000000000000815260040161037d90610644565b60405180910390fd5b8173ffffffffffffffffffffffffffffffffffffffff166108fc660aa87bee53800090811502906040515f60405180830381858888f193505050501580156103d0573d5f5f3e3d5ffd5b5050505050565b5f5ffd5b5f73ffffffffffffffffffffffffffffffffffffffff82169050919050565b5f610404826103db565b9050919050565b610414816103fa565b811461041e575f5ffd5b50565b5f8135905061042f8161040b565b92915050565b5f819050919050565b61044781610435565b8114610451575f5ffd5b50565b5f813590506104628161043e565b92915050565b5f610472826103db565b9050919050565b61048281610468565b811461048c575f5ffd5b50565b5f8135905061049d81610479565b92915050565b5f5f5f606084860312156104ba576104b96103d7565b5b5f6104c786828701610421565b93505060206104d886828701610454565b92505060406104e98682870161048f565b9150509250925092565b6104fc816103fa565b82525050565b5f6020820190506105155f8301846104f3565b92915050565b5f819050919050565b61052d8161051b565b82525050565b5f8115159050919050565b61054781610533565b82525050565b5f6060820190506105605f830186610524565b61056d602083018561053e565b61057a604083018461053e565b949350505050565b5f81519050919050565b5f81905092915050565b8281835e5f83830152505050565b5f6105ae82610582565b6105b8818561058c565b93506105c8818560208601610596565b80840191505092915050565b5f6105df82846105a4565b915081905092915050565b5f82825260208201905092915050565b7f43616c6c6261636b206661696c656400000000000000000000000000000000005f82015250565b5f61062e600f836105ea565b9150610639826105fa565b602082019050919050565b5f6020820190508181035f83015261065b81610622565b905091905056fea26469706673582212204d821d72be1c529d649b6c48fa9cca76b4aa342ad526633e06b83613f6f731b364736f6c634300081e0033","linkReferences":{}},"methodIdentifiers":{"executeDecreaseOrder(address,uint256,address)":"11d9444a","executeIncreaseOrder(address,uint256,address)":"d38ab519","orderBook()":"776af5ba"},"id":21}