{"abi":[{"type":"constructor","inputs":[{"name":"_biddingTime","type":"uint256","internalType":"uint256"}],"stateMutability":"nonpayable"},{"type":"function","name":"auctionEndTime","inputs":[],"outputs":[{"name":"","type":"uint256","internalType":"uint256"}],"stateMutability":"view"},{"type":"function","name":"bid","inputs":[],"outputs":[],"stateMutability":"payable"},{"type":"function","name":"endAuction","inputs":[],"outputs":[],"stateMutability":"nonpayable"},{"type":"function","name":"ended","inputs":[],"outputs":[{"name":"","type":"bool","internalType":"bool"}],"stateMutability":"view"},{"type":"function","name":"highestBid","inputs":[],"outputs":[{"name":"","type":"uint256","internalType":"uint256"}],"stateMutability":"view"},{"type":"function","name":"highestBidder","inputs":[],"outputs":[{"name":"","type":"address","internalType":"address"}],"stateMutability":"view"},{"type":"function","name":"owner","inputs":[],"outputs":[{"name":"","type":"address","internalType":"address"}],"stateMutability":"view"},{"type":"function","name":"pendingReturns","inputs":[{"name":"","type":"address","internalType":"address"}],"outputs":[{"name":"","type":"uint256","internalType":"uint256"}],"stateMutability":"view"},{"type":"function","name":"withdraw","inputs":[],"outputs":[],"stateMutability":"nonpayable"}],"bytecode":{"object":"0x608060405234801561000f575f5ffd5b50604051610c34380380610c34833981810160405281019061003191906100bf565b335f5f6101000a81548173ffffffffffffffffffffffffffffffffffffffff021916908373ffffffffffffffffffffffffffffffffffffffff160217905550804261007c9190610117565b6003819055505061014a565b5f5ffd5b5f819050919050565b61009e8161008c565b81146100a8575f5ffd5b50565b5f815190506100b981610095565b92915050565b5f602082840312156100d4576100d3610088565b5b5f6100e1848285016100ab565b91505092915050565b7f4e487b71000000000000000000000000000000000000000000000000000000005f52601160045260245ffd5b5f6101218261008c565b915061012c8361008c565b9250828201905080821115610144576101436100ea565b5b92915050565b610add806101575f395ff3fe608060405260043610610085575f3560e01c80634b449cba116100585780634b449cba1461010f5780638da5cb5b1461013957806391f9015714610163578063d57bde791461018d578063fe67a54b146101b757610085565b806312fa6feb146100895780631998aeef146100b357806326b387bb146100bd5780633ccfd60b146100f9575b5f5ffd5b348015610094575f5ffd5b5061009d6101cd565b6040516100aa919061068b565b60405180910390f35b6100bb6101df565b005b3480156100c8575f5ffd5b506100e360048036038101906100de9190610702565b61037b565b6040516100f09190610745565b60405180910390f35b348015610104575f5ffd5b5061010d610390565b005b34801561011a575f5ffd5b50610123610506565b6040516101309190610745565b60405180910390f35b348015610144575f5ffd5b5061014d61050c565b60405161015a919061076d565b60405180910390f35b34801561016e575f5ffd5b50610177610530565b604051610184919061076d565b60405180910390f35b348015610198575f5ffd5b506101a1610555565b6040516101ae9190610745565b60405180910390f35b3480156101c2575f5ffd5b506101cb61055b565b005b60045f9054906101000a900460ff1681565b6003544210610223576040517f08c379a000000000000000000000000000000000000000000000000000000000815260040161021a906107e0565b60405180910390fd5b6002543411610267576040517f08c379a000000000000000000000000000000000000000000000000000000000815260040161025e90610848565b60405180910390fd5b5f73ffffffffffffffffffffffffffffffffffffffff1660015f9054906101000a900473ffffffffffffffffffffffffffffffffffffffff1673ffffffffffffffffffffffffffffffffffffffff16146103325760025460055f60015f9054906101000a900473ffffffffffffffffffffffffffffffffffffffff1673ffffffffffffffffffffffffffffffffffffffff1673ffffffffffffffffffffffffffffffffffffffff1681526020019081526020015f205f82825461032a9190610893565b925050819055505b3360015f6101000a81548173ffffffffffffffffffffffffffffffffffffffff021916908373ffffffffffffffffffffffffffffffffffffffff16021790555034600281905550565b6005602052805f5260405f205f915090505481565b5f60055f3373ffffffffffffffffffffffffffffffffffffffff1673ffffffffffffffffffffffffffffffffffffffff1681526020019081526020015f205490505f8111610413576040517f08c379a000000000000000000000000000000000000000000000000000000000815260040161040a90610910565b60405180910390fd5b5f60055f3373ffffffffffffffffffffffffffffffffffffffff1673ffffffffffffffffffffffffffffffffffffffff1681526020019081526020015f20819055505f3373ffffffffffffffffffffffffffffffffffffffff16826108fc9060405161047e9061095b565b5f60405180830381858888f193505050503d805f81146104b9576040519150601f19603f3d011682016040523d82523d5f602084013e6104be565b606091505b5050905080610502576040517f08c379a00000000000000000000000000000000000000000000000000000000081526004016104f9906109b9565b60405180910390fd5b5050565b60035481565b5f5f9054906101000a900473ffffffffffffffffffffffffffffffffffffffff1681565b60015f9054906101000a900473ffffffffffffffffffffffffffffffffffffffff1681565b60025481565b6003544210156105a0576040517f08c379a000000000000000000000000000000000000000000000000000000000815260040161059790610a21565b60405180910390fd5b60045f9054906101000a900460ff16156105ef576040517f08c379a00000000000000000000000000000000000000000000000000000000081526004016105e690610a89565b60405180910390fd5b600160045f6101000a81548160ff0219169083151502179055505f5f9054906101000a900473ffffffffffffffffffffffffffffffffffffffff1673ffffffffffffffffffffffffffffffffffffffff166108fc60025490811502906040515f60405180830381858888f1935050505015801561066e573d5f5f3e3d5ffd5b50565b5f8115159050919050565b61068581610671565b82525050565b5f60208201905061069e5f83018461067c565b92915050565b5f5ffd5b5f73ffffffffffffffffffffffffffffffffffffffff82169050919050565b5f6106d1826106a8565b9050919050565b6106e1816106c7565b81146106eb575f5ffd5b50565b5f813590506106fc816106d8565b92915050565b5f60208284031215610717576107166106a4565b5b5f610724848285016106ee565b91505092915050565b5f819050919050565b61073f8161072d565b82525050565b5f6020820190506107585f830184610736565b92915050565b610767816106c7565b82525050565b5f6020820190506107805f83018461075e565b92915050565b5f82825260208201905092915050565b7f41756374696f6e20656e646564000000000000000000000000000000000000005f82015250565b5f6107ca600d83610786565b91506107d582610796565b602082019050919050565b5f6020820190508181035f8301526107f7816107be565b9050919050565b7f426964206e6f74206869676820656e6f756768000000000000000000000000005f82015250565b5f610832601383610786565b915061083d826107fe565b602082019050919050565b5f6020820190508181035f83015261085f81610826565b9050919050565b7f4e487b71000000000000000000000000000000000000000000000000000000005f52601160045260245ffd5b5f61089d8261072d565b91506108a88361072d565b92508282019050808211156108c0576108bf610866565b5b92915050565b7f4e6f2066756e647320746f2077697468647261770000000000000000000000005f82015250565b5f6108fa601483610786565b9150610905826108c6565b602082019050919050565b5f6020820190508181035f830152610927816108ee565b9050919050565b5f81905092915050565b50565b5f6109465f8361092e565b915061095182610938565b5f82019050919050565b5f6109658261093b565b9150819050919050565b7f5472616e73666572206661696c656400000000000000000000000000000000005f82015250565b5f6109a3600f83610786565b91506109ae8261096f565b602082019050919050565b5f6020820190508181035f8301526109d081610997565b9050919050565b7f41756374696f6e206e6f742079657420656e64656400000000000000000000005f82015250565b5f610a0b601583610786565b9150610a16826109d7565b602082019050919050565b5f6020820190508181035f830152610a38816109ff565b9050919050565b7f41756374696f6e20616c726561647920656e64656400000000000000000000005f82015250565b5f610a73601583610786565b9150610a7e82610a3f565b602082019050919050565b5f6020820190508181035f830152610aa081610a67565b905091905056fea26469706673582212204297e3fc78a1bad46aa623234829ebaa36938aa8aab9eeefc511a3f8d321495364736f6c634300081e0033","linkReferences":{}},"methodIdentifiers":{"auctionEndTime()":"4b449cba","bid()":"1998aeef","endAuction()":"fe67a54b","ended()":"12fa6feb","highestBid()":"d57bde79","highestBidder()":"91f90157","owner()":"8da5cb5b","pendingReturns(address)":"26b387bb","withdraw()":"3ccfd60b"},"id":19}