{"abi":[{"type":"constructor","inputs":[{"name":"_biddingTime","type":"uint256","internalType":"uint256"}],"stateMutability":"nonpayable"},{"type":"function","name":"auctionEndTime","inputs":[],"outputs":[{"name":"","type":"uint256","internalType":"uint256"}],"stateMutability":"view"},{"type":"function","name":"bid","inputs":[],"outputs":[],"stateMutability":"payable"},{"type":"function","name":"endAuction","inputs":[],"outputs":[],"stateMutability":"nonpayable"},{"type":"function","name":"ended","inputs":[],"outputs":[{"name":"","type":"bool","internalType":"bool"}],"stateMutability":"view"},{"type":"function","name":"highestBid","inputs":[],"outputs":[{"name":"","type":"uint256","internalType":"uint256"}],"stateMutability":"view"},{"type":"function","name":"highestBidder","inputs":[],"outputs":[{"name":"","type":"address","internalType":"address"}],"stateMutability":"view"},{"type":"function","name":"maliciousBid","inputs":[{"name":"amount","type":"uint256","internalType":"uint256"}],"outputs":[],"stateMutability":"nonpayable"},{"type":"function","name":"owner","inputs":[],"outputs":[{"name":"","type":"address","internalType":"address"}],"stateMutability":"view"},{"type":"function","name":"pendingReturns","inputs":[{"name":"","type":"address","internalType":"address"}],"outputs":[{"name":"","type":"uint256","internalType":"uint256"}],"stateMutability":"view"},{"type":"function","name":"withdraw","inputs":[],"outputs":[{"name":"","type":"bool","internalType":"bool"}],"stateMutability":"nonpayable"},{"type":"event","name":"AuctionEnded","inputs":[{"name":"winner","type":"address","indexed":false,"internalType":"address"},{"name":"amount","type":"uint256","indexed":false,"internalType":"uint256"}],"anonymous":false},{"type":"event","name":"HighestBidIncreased","inputs":[{"name":"bidder","type":"address","indexed":false,"internalType":"address"},{"name":"amount","type":"uint256","indexed":false,"internalType":"uint256"}],"anonymous":false}],"bytecode":{"object":"0x608060405234801561000f575f5ffd5b50604051610d54380380610d54833981810160405281019061003191906100bf565b335f5f6101000a81548173ffffffffffffffffffffffffffffffffffffffff021916908373ffffffffffffffffffffffffffffffffffffffff160217905550804261007c9190610117565b6003819055505061014a565b5f5ffd5b5f819050919050565b61009e8161008c565b81146100a8575f5ffd5b50565b5f815190506100b981610095565b92915050565b5f602082840312156100d4576100d3610088565b5b5f6100e1848285016100ab565b91505092915050565b7f4e487b71000000000000000000000000000000000000000000000000000000005f52601160045260245ffd5b5f6101218261008c565b915061012c8361008c565b9250828201905080821115610144576101436100ea565b5b92915050565b610bfd806101575f395ff3fe608060405260043610610090575f3560e01c80638da5cb5b116100585780638da5cb5b1461015857806391f9015714610182578063c1528743146101ac578063d57bde79146101d4578063fe67a54b146101fe57610090565b806312fa6feb146100945780631998aeef146100be57806326b387bb146100c85780633ccfd60b146101045780634b449cba1461012e575b5f5ffd5b34801561009f575f5ffd5b506100a8610214565b6040516100b59190610797565b60405180910390f35b6100c6610226565b005b3480156100d3575f5ffd5b506100ee60048036038101906100e9919061080e565b6103fb565b6040516100fb9190610851565b60405180910390f35b34801561010f575f5ffd5b50610118610410565b6040516101259190610797565b60405180910390f35b348015610139575f5ffd5b50610142610547565b60405161014f9190610851565b60405180910390f35b348015610163575f5ffd5b5061016c61054d565b6040516101799190610879565b60405180910390f35b34801561018d575f5ffd5b50610196610571565b6040516101a39190610879565b60405180910390f35b3480156101b7575f5ffd5b506101d260048036038101906101cd91906108bc565b610596565b005b3480156101df575f5ffd5b506101e86105e0565b6040516101f59190610851565b60405180910390f35b348015610209575f5ffd5b506102126105e6565b005b60045f9054906101000a900460ff1681565b600354421061026a576040517f08c379a000000000000000000000000000000000000000000000000000000000815260040161026190610941565b60405180910390fd5b60025434116102ae576040517f08c379a00000000000000000000000000000000000000000000000000000000081526004016102a5906109a9565b60405180910390fd5b5f73ffffffffffffffffffffffffffffffffffffffff1660015f9054906101000a900473ffffffffffffffffffffffffffffffffffffffff1673ffffffffffffffffffffffffffffffffffffffff16146103795760025460055f60015f9054906101000a900473ffffffffffffffffffffffffffffffffffffffff1673ffffffffffffffffffffffffffffffffffffffff1673ffffffffffffffffffffffffffffffffffffffff1681526020019081526020015f205f82825461037191906109f4565b925050819055505b3360015f6101000a81548173ffffffffffffffffffffffffffffffffffffffff021916908373ffffffffffffffffffffffffffffffffffffffff160217905550346002819055507ff4757a49b326036464bec6fe419a4ae38c8a02ce3e68bf0809674f6aab8ad30033346040516103f1929190610a27565b60405180910390a1565b6005602052805f5260405f205f915090505481565b5f5f60055f3373ffffffffffffffffffffffffffffffffffffffff1673ffffffffffffffffffffffffffffffffffffffff1681526020019081526020015f205490505f8111610494576040517f08c379a000000000000000000000000000000000000000000000000000000000815260040161048b90610a98565b60405180910390fd5b5f60055f3373ffffffffffffffffffffffffffffffffffffffff1673ffffffffffffffffffffffffffffffffffffffff1681526020019081526020015f20819055505f3373ffffffffffffffffffffffffffffffffffffffff16826040516104fb90610ae3565b5f6040518083038185875af1925050503d805f8114610535576040519150601f19603f3d011682016040523d82523d5f602084013e61053a565b606091505b5050905060019250505090565b60035481565b5f5f9054906101000a900473ffffffffffffffffffffffffffffffffffffffff1681565b60015f9054906101000a900473ffffffffffffffffffffffffffffffffffffffff1681565b806002819055503360015f6101000a81548173ffffffffffffffffffffffffffffffffffffffff021916908373ffffffffffffffffffffffffffffffffffffffff16021790555050565b60025481565b60035442101561062b576040517f08c379a000000000000000000000000000000000000000000000000000000000815260040161062290610b41565b60405180910390fd5b60045f9054906101000a900460ff161561067a576040517f08c379a000000000000000000000000000000000000000000000000000000000815260040161067190610ba9565b60405180910390fd5b600160045f6101000a81548160ff0219169083151502179055507fdaec4582d5d9595688c8c98545fdd1c696d41c6aeaeb636737e84ed2f5c00eda60015f9054906101000a900473ffffffffffffffffffffffffffffffffffffffff166002546040516106e8929190610a27565b60405180910390a15f5f5f9054906101000a900473ffffffffffffffffffffffffffffffffffffffff1673ffffffffffffffffffffffffffffffffffffffff1660025460405161073790610ae3565b5f6040518083038185875af1925050503d805f8114610771576040519150601f19603f3d011682016040523d82523d5f602084013e610776565b606091505b5050905050565b5f8115159050919050565b6107918161077d565b82525050565b5f6020820190506107aa5f830184610788565b92915050565b5f5ffd5b5f73ffffffffffffffffffffffffffffffffffffffff82169050919050565b5f6107dd826107b4565b9050919050565b6107ed816107d3565b81146107f7575f5ffd5b50565b5f81359050610808816107e4565b92915050565b5f60208284031215610823576108226107b0565b5b5f610830848285016107fa565b91505092915050565b5f819050919050565b61084b81610839565b82525050565b5f6020820190506108645f830184610842565b92915050565b610873816107d3565b82525050565b5f60208201905061088c5f83018461086a565b92915050565b61089b81610839565b81146108a5575f5ffd5b50565b5f813590506108b681610892565b92915050565b5f602082840312156108d1576108d06107b0565b5b5f6108de848285016108a8565b91505092915050565b5f82825260208201905092915050565b7f41756374696f6e20656e646564000000000000000000000000000000000000005f82015250565b5f61092b600d836108e7565b9150610936826108f7565b602082019050919050565b5f6020820190508181035f8301526109588161091f565b9050919050565b7f426964206e6f74206869676820656e6f756768000000000000000000000000005f82015250565b5f6109936013836108e7565b915061099e8261095f565b602082019050919050565b5f6020820190508181035f8301526109c081610987565b9050919050565b7f4e487b71000000000000000000000000000000000000000000000000000000005f52601160045260245ffd5b5f6109fe82610839565b9150610a0983610839565b9250828201905080821115610a2157610a206109c7565b5b92915050565b5f604082019050610a3a5f83018561086a565b610a476020830184610842565b9392505050565b7f4e6f2066756e647320746f2077697468647261770000000000000000000000005f82015250565b5f610a826014836108e7565b9150610a8d82610a4e565b602082019050919050565b5f6020820190508181035f830152610aaf81610a76565b9050919050565b5f81905092915050565b50565b5f610ace5f83610ab6565b9150610ad982610ac0565b5f82019050919050565b5f610aed82610ac3565b9150819050919050565b7f41756374696f6e206e6f742079657420656e64656400000000000000000000005f82015250565b5f610b2b6015836108e7565b9150610b3682610af7565b602082019050919050565b5f6020820190508181035f830152610b5881610b1f565b9050919050565b7f41756374696f6e20616c726561647920656e64656400000000000000000000005f82015250565b5f610b936015836108e7565b9150610b9e82610b5f565b602082019050919050565b5f6020820190508181035f830152610bc081610b87565b905091905056fea2646970667358221220c9f0abd0df484bca03eabe97989b4e5bddf099b0e82cdb1a564ddf237e89a98d64736f6c634300081e0033","linkReferences":{}},"methodIdentifiers":{"auctionEndTime()":"4b449cba","bid()":"1998aeef","endAuction()":"fe67a54b","ended()":"12fa6feb","highestBid()":"d57bde79","highestBidder()":"91f90157","maliciousBid(uint256)":"c1528743","owner()":"8da5cb5b","pendingReturns(address)":"26b387bb","withdraw()":"3ccfd60b"},"id":19}