{"abi":[{"type":"constructor","inputs":[],"stateMutability":"nonpayable"},{"type":"function","name":"getGlobalShortAveragePrice","inputs":[{"name":"_token","type":"address","internalType":"address"}],"outputs":[{"name":"","type":"uint256","internalType":"uint256"}],"stateMutability":"view"},{"type":"function","name":"globalShortAveragePrice","inputs":[],"outputs":[{"name":"","type":"uint256","internalType":"uint256"}],"stateMutability":"view"},{"type":"function","name":"keeper","inputs":[],"outputs":[{"name":"","type":"address","internalType":"address"}],"stateMutability":"view"},{"type":"function","name":"priceUpdated","inputs":[],"outputs":[{"name":"","type":"bool","internalType":"bool"}],"stateMutability":"view"},{"type":"function","name":"setPricesWithBitsAndExecute","inputs":[{"name":"_priceBits","type":"uint256","internalType":"uint256"},{"name":"_timestamp","type":"uint256","internalType":"uint256"},{"name":"_endIndexForIncreasePositions","type":"uint256","internalType":"uint256"},{"name":"_endIndexForDecreasePositions","type":"uint256","internalType":"uint256"},{"name":"_maxIncreasePositions","type":"uint256","internalType":"uint256"},{"name":"_maxDecreasePositions","type":"uint256","internalType":"uint256"}],"outputs":[],"stateMutability":"nonpayable"}],"bytecode":{"object":"0x6080604052348015600e575f5ffd5b50336001806101000a81548173ffffffffffffffffffffffffffffffffffffffff021916908373ffffffffffffffffffffffffffffffffffffffff1602179055506103698061005c5f395ff3fe608060405234801561000f575f5ffd5b5060043610610055575f3560e01c8063440d828a14610059578063546b722014610089578063574ec1be146100a7578063759f6e5c146100c3578063aced1661146100e1575b5f5ffd5b610073600480360381019061006e91906101c9565b6100ff565b604051610080919061020c565b60405180910390f35b610091610109565b60405161009e919061023f565b60405180910390f35b6100c160048036038101906100bc9190610282565b61011b565b005b6100cb610142565b6040516100d8919061020c565b60405180910390f35b6100e9610147565b6040516100f6919061031a565b60405180910390f35b5f5f549050919050565b60015f9054906101000a900460ff1681565b855f819055506001805f6101000a81548160ff021916908315150217905550505050505050565b5f5481565b60018054906101000a900473ffffffffffffffffffffffffffffffffffffffff1681565b5f5ffd5b5f73ffffffffffffffffffffffffffffffffffffffff82169050919050565b5f6101988261016f565b9050919050565b6101a88161018e565b81146101b2575f5ffd5b50565b5f813590506101c38161019f565b92915050565b5f602082840312156101de576101dd61016b565b5b5f6101eb848285016101b5565b91505092915050565b5f819050919050565b610206816101f4565b82525050565b5f60208201905061021f5f8301846101fd565b92915050565b5f8115159050919050565b61023981610225565b82525050565b5f6020820190506102525f830184610230565b92915050565b610261816101f4565b811461026b575f5ffd5b50565b5f8135905061027c81610258565b92915050565b5f5f5f5f5f5f60c0878903121561029c5761029b61016b565b5b5f6102a989828a0161026e565b96505060206102ba89828a0161026e565b95505060406102cb89828a0161026e565b94505060606102dc89828a0161026e565b93505060806102ed89828a0161026e565b92505060a06102fe89828a0161026e565b9150509295509295509295565b6103148161018e565b82525050565b5f60208201905061032d5f83018461030b565b9291505056fea264697066735822122061bd5aae610656d30c620b44b9bd5d4a5807b47eaf11d4323ae1b361635b16d564736f6c634300081e0033","linkReferences":{}},"methodIdentifiers":{"getGlobalShortAveragePrice(address)":"440d828a","globalShortAveragePrice()":"759f6e5c","keeper()":"aced1661","priceUpdated()":"546b7220","setPricesWithBitsAndExecute(uint256,uint256,uint256,uint256,uint256,uint256)":"574ec1be"},"id":22}