{"abi":[{"type":"constructor","inputs":[{"name":"_initialSupply","type":"uint256","internalType":"uint256"}],"stateMutability":"nonpayable"},{"type":"function","name":"allowances","inputs":[{"name":"","type":"address","internalType":"address"},{"name":"","type":"address","internalType":"address"}],"outputs":[{"name":"","type":"uint256","internalType":"uint256"}],"stateMutability":"view"},{"type":"function","name":"approve","inputs":[{"name":"spender","type":"address","internalType":"address"},{"name":"amount","type":"uint256","internalType":"uint256"}],"outputs":[{"name":"","type":"bool","internalType":"bool"}],"stateMutability":"nonpayable"},{"type":"function","name":"balanceOf","inputs":[{"name":"account","type":"address","internalType":"address"}],"outputs":[{"name":"","type":"uint256","internalType":"uint256"}],"stateMutability":"view"},{"type":"function","name":"balances","inputs":[{"name":"","type":"address","internalType":"address"}],"outputs":[{"name":"","type":"uint256","internalType":"uint256"}],"stateMutability":"view"},{"type":"function","name":"totalSupply","inputs":[],"outputs":[{"name":"","type":"uint256","internalType":"uint256"}],"stateMutability":"view"},{"type":"function","name":"transfer","inputs":[{"name":"to","type":"address","internalType":"address"},{"name":"amount","type":"uint256","internalType":"uint256"}],"outputs":[{"name":"","type":"bool","internalType":"bool"}],"stateMutability":"nonpayable"},{"type":"function","name":"transferFrom","inputs":[{"name":"from","type":"address","internalType":"address"},{"name":"to","type":"address","internalType":"address"},{"name":"amount","type":"uint256","internalType":"uint256"}],"outputs":[{"name":"","type":"bool","internalType":"bool"}],"stateMutability":"nonpayable"},{"type":"event","name":"Approval","inputs":[{"name":"owner","type":"address","indexed":true,"internalType":"address"},{"name":"spender","type":"address","indexed":true,"internalType":"address"},{"name":"value","type":"uint256","indexed":false,"internalType":"uint256"}],"anonymous":false},{"type":"event","name":"Transfer","inputs":[{"name":"from","type":"address","indexed":true,"internalType":"address"},{"name":"to","type":"address","indexed":true,"internalType":"address"},{"name":"value","type":"uint256","indexed":false,"internalType":"uint256"}],"anonymous":false}],"bytecode":{"object":"0x608060405234801561000f575f5ffd5b50604051610ca0380380610ca08339818101604052810190610031919061011b565b80600281905550805f5f3373ffffffffffffffffffffffffffffffffffffffff1673ffffffffffffffffffffffffffffffffffffffff1681526020019081526020015f20819055503373ffffffffffffffffffffffffffffffffffffffff165f73ffffffffffffffffffffffffffffffffffffffff167fddf252ad1be2c89b69c2b068fc378daa952ba7f163c4a11628f55a4df523b3ef836040516100d69190610155565b60405180910390a35061016e565b5f5ffd5b5f819050919050565b6100fa816100e8565b8114610104575f5ffd5b50565b5f81519050610115816100f1565b92915050565b5f602082840312156101305761012f6100e4565b5b5f61013d84828501610107565b91505092915050565b61014f816100e8565b82525050565b5f6020820190506101685f830184610146565b92915050565b610b258061017b5f395ff3fe608060405234801561000f575f5ffd5b506004361061007b575f3560e01c806327e235e31161005957806327e235e3146100fd57806355b6ed5c1461012d57806370a082311461015d578063a9059cbb1461018d5761007b565b8063095ea7b31461007f57806318160ddd146100af57806323b872dd146100cd575b5f5ffd5b6100996004803603810190610094919061082a565b6101bd565b6040516100a69190610882565b60405180910390f35b6100b76102aa565b6040516100c491906108aa565b60405180910390f35b6100e760048036038101906100e291906108c3565b6102b0565b6040516100f49190610882565b60405180910390f35b61011760048036038101906101129190610913565b61058d565b60405161012491906108aa565b60405180910390f35b6101476004803603810190610142919061093e565b6105a1565b60405161015491906108aa565b60405180910390f35b61017760048036038101906101729190610913565b6105c1565b60405161018491906108aa565b60405180910390f35b6101a760048036038101906101a2919061082a565b610606565b6040516101b49190610882565b60405180910390f35b5f8160015f3373ffffffffffffffffffffffffffffffffffffffff1673ffffffffffffffffffffffffffffffffffffffff1681526020019081526020015f205f8573ffffffffffffffffffffffffffffffffffffffff1673ffffffffffffffffffffffffffffffffffffffff1681526020019081526020015f20819055508273ffffffffffffffffffffffffffffffffffffffff163373ffffffffffffffffffffffffffffffffffffffff167f8c5be1e5ebec7d5bd14f71427d1e84f3dd0314c0f7b2291e5b200ac8c7c3b9258460405161029891906108aa565b60405180910390a36001905092915050565b60025481565b5f8160015f8673ffffffffffffffffffffffffffffffffffffffff1673ffffffffffffffffffffffffffffffffffffffff1681526020019081526020015f205f3373ffffffffffffffffffffffffffffffffffffffff1673ffffffffffffffffffffffffffffffffffffffff1681526020019081526020015f2054101561036c576040517f08c379a0000000000000000000000000000000000000000000000000000000008152600401610363906109d6565b60405180910390fd5b815f5f8673ffffffffffffffffffffffffffffffffffffffff1673ffffffffffffffffffffffffffffffffffffffff1681526020019081526020015f205410156103eb576040517f08c379a00000000000000000000000000000000000000000000000000000000081526004016103e290610a3e565b60405180910390fd5b8160015f8673ffffffffffffffffffffffffffffffffffffffff1673ffffffffffffffffffffffffffffffffffffffff1681526020019081526020015f205f3373ffffffffffffffffffffffffffffffffffffffff1673ffffffffffffffffffffffffffffffffffffffff1681526020019081526020015f205f8282546104729190610a89565b92505081905550815f5f8673ffffffffffffffffffffffffffffffffffffffff1673ffffffffffffffffffffffffffffffffffffffff1681526020019081526020015f205f8282546104c49190610a89565b92505081905550815f5f8573ffffffffffffffffffffffffffffffffffffffff1673ffffffffffffffffffffffffffffffffffffffff1681526020019081526020015f205f8282546105169190610abc565b925050819055508273ffffffffffffffffffffffffffffffffffffffff168473ffffffffffffffffffffffffffffffffffffffff167fddf252ad1be2c89b69c2b068fc378daa952ba7f163c4a11628f55a4df523b3ef8460405161057a91906108aa565b60405180910390a3600190509392505050565b5f602052805f5260405f205f915090505481565b6001602052815f5260405f20602052805f5260405f205f91509150505481565b5f5f5f8373ffffffffffffffffffffffffffffffffffffffff1673ffffffffffffffffffffffffffffffffffffffff1681526020019081526020015f20549050919050565b5f815f5f3373ffffffffffffffffffffffffffffffffffffffff1673ffffffffffffffffffffffffffffffffffffffff1681526020019081526020015f20541015610686576040517f08c379a000000000000000000000000000000000000000000000000000000000815260040161067d90610a3e565b60405180910390fd5b815f5f3373ffffffffffffffffffffffffffffffffffffffff1673ffffffffffffffffffffffffffffffffffffffff1681526020019081526020015f205f8282546106d19190610a89565b92505081905550815f5f8573ffffffffffffffffffffffffffffffffffffffff1673ffffffffffffffffffffffffffffffffffffffff1681526020019081526020015f205f8282546107239190610abc565b925050819055508273ffffffffffffffffffffffffffffffffffffffff163373ffffffffffffffffffffffffffffffffffffffff167fddf252ad1be2c89b69c2b068fc378daa952ba7f163c4a11628f55a4df523b3ef8460405161078791906108aa565b60405180910390a36001905092915050565b5f5ffd5b5f73ffffffffffffffffffffffffffffffffffffffff82169050919050565b5f6107c68261079d565b9050919050565b6107d6816107bc565b81146107e0575f5ffd5b50565b5f813590506107f1816107cd565b92915050565b5f819050919050565b610809816107f7565b8114610813575f5ffd5b50565b5f8135905061082481610800565b92915050565b5f5f604083850312156108405761083f610799565b5b5f61084d858286016107e3565b925050602061085e85828601610816565b9150509250929050565b5f8115159050919050565b61087c81610868565b82525050565b5f6020820190506108955f830184610873565b92915050565b6108a4816107f7565b82525050565b5f6020820190506108bd5f83018461089b565b92915050565b5f5f5f606084860312156108da576108d9610799565b5b5f6108e7868287016107e3565b93505060206108f8868287016107e3565b925050604061090986828701610816565b9150509250925092565b5f6020828403121561092857610927610799565b5b5f610935848285016107e3565b91505092915050565b5f5f6040838503121561095457610953610799565b5b5f610961858286016107e3565b9250506020610972858286016107e3565b9150509250929050565b5f82825260208201905092915050565b7f496e73756666696369656e7420616c6c6f77616e6365000000000000000000005f82015250565b5f6109c060168361097c565b91506109cb8261098c565b602082019050919050565b5f6020820190508181035f8301526109ed816109b4565b9050919050565b7f496e73756666696369656e742062616c616e63650000000000000000000000005f82015250565b5f610a2860148361097c565b9150610a33826109f4565b602082019050919050565b5f6020820190508181035f830152610a5581610a1c565b9050919050565b7f4e487b71000000000000000000000000000000000000000000000000000000005f52601160045260245ffd5b5f610a93826107f7565b9150610a9e836107f7565b9250828203905081811115610ab657610ab5610a5c565b5b92915050565b5f610ac6826107f7565b9150610ad1836107f7565b9250828201905080821115610ae957610ae8610a5c565b5b9291505056fea2646970667358221220a4b443fb103d937787b19e6fb138c6772d82986938950f41cb51a063bb3855d864736f6c634300081e0033","linkReferences":{}},"methodIdentifiers":{"allowances(address,address)":"55b6ed5c","approve(address,uint256)":"095ea7b3","balanceOf(address)":"70a08231","balances(address)":"27e235e3","totalSupply()":"18160ddd","transfer(address,uint256)":"a9059cbb","transferFrom(address,address,uint256)":"23b872dd"},"id":21}