{"abi":[{"type":"constructor","inputs":[{"name":"_name","type":"string","internalType":"string"},{"name":"_symbol","type":"string","internalType":"string"},{"name":"_decimals","type":"uint8","internalType":"uint8"},{"name":"_initialSupply","type":"uint256","internalType":"uint256"}],"stateMutability":"nonpayable"},{"type":"function","name":"allowances","inputs":[{"name":"","type":"address","internalType":"address"},{"name":"","type":"address","internalType":"address"}],"outputs":[{"name":"","type":"uint256","internalType":"uint256"}],"stateMutability":"view"},{"type":"function","name":"approve","inputs":[{"name":"spender","type":"address","internalType":"address"},{"name":"amount","type":"uint256","internalType":"uint256"}],"outputs":[{"name":"","type":"bool","internalType":"bool"}],"stateMutability":"nonpayable"},{"type":"function","name":"balances","inputs":[{"name":"","type":"address","internalType":"address"}],"outputs":[{"name":"","type":"uint256","internalType":"uint256"}],"stateMutability":"view"},{"type":"function","name":"decimals","inputs":[],"outputs":[{"name":"","type":"uint8","internalType":"uint8"}],"stateMutability":"view"},{"type":"function","name":"name","inputs":[],"outputs":[{"name":"","type":"string","internalType":"string"}],"stateMutability":"view"},{"type":"function","name":"symbol","inputs":[],"outputs":[{"name":"","type":"string","internalType":"string"}],"stateMutability":"view"},{"type":"function","name":"totalSupply","inputs":[],"outputs":[{"name":"","type":"uint256","internalType":"uint256"}],"stateMutability":"view"},{"type":"function","name":"transfer","inputs":[{"name":"to","type":"address","internalType":"address"},{"name":"amount","type":"uint256","internalType":"uint256"}],"outputs":[{"name":"","type":"bool","internalType":"bool"}],"stateMutability":"nonpayable"},{"type":"function","name":"transferFrom","inputs":[{"name":"from","type":"address","internalType":"address"},{"name":"to","type":"address","internalType":"address"},{"name":"amount","type":"uint256","internalType":"uint256"}],"outputs":[{"name":"","type":"bool","internalType":"bool"}],"stateMutability":"nonpayable"},{"type":"function","name":"vulnerableBatchTransfer","inputs":[{"name":"recipients","type":"address[]","internalType":"address[]"},{"name":"amount","type":"uint256","internalType":"uint256"}],"outputs":[],"stateMutability":"nonpayable"},{"type":"function","name":"vulnerableBurn","inputs":[{"name":"from","type":"address","internalType":"address"},{"name":"amount","type":"uint256","internalType":"uint256"}],"outputs":[],"stateMutability":"nonpayable"},{"type":"function","name":"vulnerableMint","inputs":[{"name":"to","type":"address","internalType":"address"},{"name":"amount","type":"uint256","internalType":"uint256"}],"outputs":[],"stateMutability":"nonpayable"},{"type":"event","name":"Approval","inputs":[{"name":"owner","type":"address","indexed":true,"internalType":"address"},{"name":"spender","type":"address","indexed":true,"internalType":"address"},{"name":"value","type":"uint256","indexed":false,"internalType":"uint256"}],"anonymous":false},{"type":"event","name":"Transfer","inputs":[{"name":"from","type":"address","indexed":true,"internalType":"address"},{"name":"to","type":"address","indexed":true,"internalType":"address"},{"name":"value","type":"uint256","indexed":false,"internalType":"uint256"}],"anonymous":false}],"bytecode":{"object":"0x608060405234801561000f575f5ffd5b506040516117d53803806117d5833981810160405281019061003191906102d7565b8360039081610040919061057a565b508260049081610050919061057a565b508160055f6101000a81548160ff021916908360ff16021790555080600281905550805f5f3373ffffffffffffffffffffffffffffffffffffffff1673ffffffffffffffffffffffffffffffffffffffff1681526020019081526020015f20819055503373ffffffffffffffffffffffffffffffffffffffff165f73ffffffffffffffffffffffffffffffffffffffff167fddf252ad1be2c89b69c2b068fc378daa952ba7f163c4a11628f55a4df523b3ef836040516101109190610658565b60405180910390a350505050610671565b5f604051905090565b5f5ffd5b5f5ffd5b5f5ffd5b5f5ffd5b5f601f19601f8301169050919050565b7f4e487b71000000000000000000000000000000000000000000000000000000005f52604160045260245ffd5b6101808261013a565b810181811067ffffffffffffffff8211171561019f5761019e61014a565b5b80604052505050565b5f6101b1610121565b90506101bd8282610177565b919050565b5f67ffffffffffffffff8211156101dc576101db61014a565b5b6101e58261013a565b9050602081019050919050565b8281835e5f83830152505050565b5f61021261020d846101c2565b6101a8565b90508281526020810184848401111561022e5761022d610136565b5b6102398482856101f2565b509392505050565b5f82601f83011261025557610254610132565b5b8151610265848260208601610200565b91505092915050565b5f60ff82169050919050565b6102838161026e565b811461028d575f5ffd5b50565b5f8151905061029e8161027a565b92915050565b5f819050919050565b6102b6816102a4565b81146102c0575f5ffd5b50565b5f815190506102d1816102ad565b92915050565b5f5f5f5f608085870312156102ef576102ee61012a565b5b5f85015167ffffffffffffffff81111561030c5761030b61012e565b5b61031887828801610241565b945050602085015167ffffffffffffffff8111156103395761033861012e565b5b61034587828801610241565b935050604061035687828801610290565b9250506060610367878288016102c3565b91505092959194509250565b5f81519050919050565b7f4e487b71000000000000000000000000000000000000000000000000000000005f52602260045260245ffd5b5f60028204905060018216806103c157607f821691505b6020821081036103d4576103d361037d565b5b50919050565b5f819050815f5260205f209050919050565b5f6020601f8301049050919050565b5f82821b905092915050565b5f600883026104367fffffffffffffffffffffffffffffffffffffffffffffffffffffffffffffffff826103fb565b61044086836103fb565b95508019841693508086168417925050509392505050565b5f819050919050565b5f61047b610476610471846102a4565b610458565b6102a4565b9050919050565b5f819050919050565b61049483610461565b6104a86104a082610482565b848454610407565b825550505050565b5f5f905090565b6104bf6104b0565b6104ca81848461048b565b505050565b5b818110156104ed576104e25f826104b7565b6001810190506104d0565b5050565b601f82111561053257610503816103da565b61050c846103ec565b8101602085101561051b578190505b61052f610527856103ec565b8301826104cf565b50505b505050565b5f82821c905092915050565b5f6105525f1984600802610537565b1980831691505092915050565b5f61056a8383610543565b9150826002028217905092915050565b61058382610373565b67ffffffffffffffff81111561059c5761059b61014a565b5b6105a682546103aa565b6105b18282856104f1565b5f60209050601f8311600181146105e2575f84156105d0578287015190505b6105da858261055f565b865550610641565b601f1984166105f0866103da565b5f5b82811015610617578489015182556001820191506020850194506020810190506105f2565b868310156106345784890151610630601f891682610543565b8355505b6001600288020188555050505b505050505050565b610652816102a4565b82525050565b5f60208201905061066b5f830184610649565b92915050565b6111578061067e5f395ff3fe608060405234801561000f575f5ffd5b50600436106100b2575f3560e01c806355b6ed5c1161006f57806355b6ed5c146101a05780636ac2d7c6146101d057806395d89b41146101ec578063a9059cbb1461020a578063ae9c8a261461023a578063dd463ac514610256576100b2565b806306fdde03146100b6578063095ea7b3146100d457806318160ddd1461010457806323b872dd1461012257806327e235e314610152578063313ce56714610182575b5f5ffd5b6100be610272565b6040516100cb9190610b7d565b60405180910390f35b6100ee60048036038101906100e99190610c3b565b6102fe565b6040516100fb9190610c93565b60405180910390f35b61010c6103eb565b6040516101199190610cbb565b60405180910390f35b61013c60048036038101906101379190610cd4565b6103f1565b6040516101499190610c93565b60405180910390f35b61016c60048036038101906101679190610d24565b610594565b6040516101799190610cbb565b60405180910390f35b61018a6105a8565b6040516101979190610d6a565b60405180910390f35b6101ba60048036038101906101b59190610d83565b6105ba565b6040516101c79190610cbb565b60405180910390f35b6101ea60048036038101906101e59190610c3b565b6105da565b005b6101f46106ad565b6040516102019190610b7d565b60405180910390f35b610224600480360381019061021f9190610c3b565b610739565b6040516102319190610c93565b60405180910390f35b610254600480360381019061024f9190610c3b565b61084d565b005b610270600480360381019061026b9190610f01565b610920565b005b6003805461027f90610f88565b80601f01602080910402602001604051908101604052809291908181526020018280546102ab90610f88565b80156102f65780601f106102cd576101008083540402835291602001916102f6565b820191905f5260205f20905b8154815290600101906020018083116102d957829003601f168201915b505050505081565b5f8160015f3373ffffffffffffffffffffffffffffffffffffffff1673ffffffffffffffffffffffffffffffffffffffff1681526020019081526020015f205f8573ffffffffffffffffffffffffffffffffffffffff1673ffffffffffffffffffffffffffffffffffffffff1681526020019081526020015f20819055508273ffffffffffffffffffffffffffffffffffffffff163373ffffffffffffffffffffffffffffffffffffffff167f8c5be1e5ebec7d5bd14f71427d1e84f3dd0314c0f7b2291e5b200ac8c7c3b925846040516103d99190610cbb565b60405180910390a36001905092915050565b60025481565b5f8160015f8673ffffffffffffffffffffffffffffffffffffffff1673ffffffffffffffffffffffffffffffffffffffff1681526020019081526020015f205f3373ffffffffffffffffffffffffffffffffffffffff1673ffffffffffffffffffffffffffffffffffffffff1681526020019081526020015f205f8282546104799190610fe5565b92505081905550815f5f8673ffffffffffffffffffffffffffffffffffffffff1673ffffffffffffffffffffffffffffffffffffffff1681526020019081526020015f205f8282546104cb9190610fe5565b92505081905550815f5f8573ffffffffffffffffffffffffffffffffffffffff1673ffffffffffffffffffffffffffffffffffffffff1681526020019081526020015f205f82825461051d9190611018565b925050819055508273ffffffffffffffffffffffffffffffffffffffff168473ffffffffffffffffffffffffffffffffffffffff167fddf252ad1be2c89b69c2b068fc378daa952ba7f163c4a11628f55a4df523b3ef846040516105819190610cbb565b60405180910390a3600190509392505050565b5f602052805f5260405f205f915090505481565b60055f9054906101000a900460ff1681565b6001602052815f5260405f20602052805f5260405f205f91509150505481565b8060025f8282546105eb9190611018565b92505081905550805f5f8473ffffffffffffffffffffffffffffffffffffffff1673ffffffffffffffffffffffffffffffffffffffff1681526020019081526020015f205f82825461063d9190611018565b925050819055508173ffffffffffffffffffffffffffffffffffffffff165f73ffffffffffffffffffffffffffffffffffffffff167fddf252ad1be2c89b69c2b068fc378daa952ba7f163c4a11628f55a4df523b3ef836040516106a19190610cbb565b60405180910390a35050565b600480546106ba90610f88565b80601f01602080910402602001604051908101604052809291908181526020018280546106e690610f88565b80156107315780601f1061070857610100808354040283529160200191610731565b820191905f5260205f20905b81548152906001019060200180831161071457829003601f168201915b505050505081565b5f815f5f3373ffffffffffffffffffffffffffffffffffffffff1673ffffffffffffffffffffffffffffffffffffffff1681526020019081526020015f205f8282546107859190610fe5565b92505081905550815f5f8573ffffffffffffffffffffffffffffffffffffffff1673ffffffffffffffffffffffffffffffffffffffff1681526020019081526020015f205f8282546107d79190611018565b925050819055508273ffffffffffffffffffffffffffffffffffffffff163373ffffffffffffffffffffffffffffffffffffffff167fddf252ad1be2c89b69c2b068fc378daa952ba7f163c4a11628f55a4df523b3ef8460405161083b9190610cbb565b60405180910390a36001905092915050565b805f5f8473ffffffffffffffffffffffffffffffffffffffff1673ffffffffffffffffffffffffffffffffffffffff1681526020019081526020015f205f8282546108989190610fe5565b925050819055508060025f8282546108b09190610fe5565b925050819055505f73ffffffffffffffffffffffffffffffffffffffff168273ffffffffffffffffffffffffffffffffffffffff167fddf252ad1be2c89b69c2b068fc378daa952ba7f163c4a11628f55a4df523b3ef836040516109149190610cbb565b60405180910390a35050565b5f81835161092e919061104b565b9050805f5f3373ffffffffffffffffffffffffffffffffffffffff1673ffffffffffffffffffffffffffffffffffffffff1681526020019081526020015f205410156109af576040517f08c379a00000000000000000000000000000000000000000000000000000000081526004016109a6906110d6565b60405180910390fd5b805f5f3373ffffffffffffffffffffffffffffffffffffffff1673ffffffffffffffffffffffffffffffffffffffff1681526020019081526020015f205f8282546109fa9190610fe5565b925050819055505f5f90505b8351811015610b0757825f5f868481518110610a2557610a246110f4565b5b602002602001015173ffffffffffffffffffffffffffffffffffffffff1673ffffffffffffffffffffffffffffffffffffffff1681526020019081526020015f205f828254610a749190611018565b92505081905550838181518110610a8e57610a8d6110f4565b5b602002602001015173ffffffffffffffffffffffffffffffffffffffff163373ffffffffffffffffffffffffffffffffffffffff167fddf252ad1be2c89b69c2b068fc378daa952ba7f163c4a11628f55a4df523b3ef85604051610af29190610cbb565b60405180910390a38080600101915050610a06565b50505050565b5f81519050919050565b5f82825260208201905092915050565b8281835e5f83830152505050565b5f601f19601f8301169050919050565b5f610b4f82610b0d565b610b598185610b17565b9350610b69818560208601610b27565b610b7281610b35565b840191505092915050565b5f6020820190508181035f830152610b958184610b45565b905092915050565b5f604051905090565b5f5ffd5b5f5ffd5b5f73ffffffffffffffffffffffffffffffffffffffff82169050919050565b5f610bd782610bae565b9050919050565b610be781610bcd565b8114610bf1575f5ffd5b50565b5f81359050610c0281610bde565b92915050565b5f819050919050565b610c1a81610c08565b8114610c24575f5ffd5b50565b5f81359050610c3581610c11565b92915050565b5f5f60408385031215610c5157610c50610ba6565b5b5f610c5e85828601610bf4565b9250506020610c6f85828601610c27565b9150509250929050565b5f8115159050919050565b610c8d81610c79565b82525050565b5f602082019050610ca65f830184610c84565b92915050565b610cb581610c08565b82525050565b5f602082019050610cce5f830184610cac565b92915050565b5f5f5f60608486031215610ceb57610cea610ba6565b5b5f610cf886828701610bf4565b9350506020610d0986828701610bf4565b9250506040610d1a86828701610c27565b9150509250925092565b5f60208284031215610d3957610d38610ba6565b5b5f610d4684828501610bf4565b91505092915050565b5f60ff82169050919050565b610d6481610d4f565b82525050565b5f602082019050610d7d5f830184610d5b565b92915050565b5f5f60408385031215610d9957610d98610ba6565b5b5f610da685828601610bf4565b9250506020610db785828601610bf4565b9150509250929050565b5f5ffd5b7f4e487b71000000000000000000000000000000000000000000000000000000005f52604160045260245ffd5b610dfb82610b35565b810181811067ffffffffffffffff82111715610e1a57610e19610dc5565b5b80604052505050565b5f610e2c610b9d565b9050610e388282610df2565b919050565b5f67ffffffffffffffff821115610e5757610e56610dc5565b5b602082029050602081019050919050565b5f5ffd5b5f610e7e610e7984610e3d565b610e23565b90508083825260208201905060208402830185811115610ea157610ea0610e68565b5b835b81811015610eca5780610eb68882610bf4565b845260208401935050602081019050610ea3565b5050509392505050565b5f82601f830112610ee857610ee7610dc1565b5b8135610ef8848260208601610e6c565b91505092915050565b5f5f60408385031215610f1757610f16610ba6565b5b5f83013567ffffffffffffffff811115610f3457610f33610baa565b5b610f4085828601610ed4565b9250506020610f5185828601610c27565b9150509250929050565b7f4e487b71000000000000000000000000000000000000000000000000000000005f52602260045260245ffd5b5f6002820490506001821680610f9f57607f821691505b602082108103610fb257610fb1610f5b565b5b50919050565b7f4e487b71000000000000000000000000000000000000000000000000000000005f52601160045260245ffd5b5f610fef82610c08565b9150610ffa83610c08565b925082820390508181111561101257611011610fb8565b5b92915050565b5f61102282610c08565b915061102d83610c08565b925082820190508082111561104557611044610fb8565b5b92915050565b5f61105582610c08565b915061106083610c08565b925082820261106e81610c08565b9150828204841483151761108557611084610fb8565b5b5092915050565b7f496e73756666696369656e742062616c616e63650000000000000000000000005f82015250565b5f6110c0601483610b17565b91506110cb8261108c565b602082019050919050565b5f6020820190508181035f8301526110ed816110b4565b9050919050565b7f4e487b71000000000000000000000000000000000000000000000000000000005f52603260045260245ffdfea2646970667358221220b39d5d22325758c61105798731ba9d49eac317eb14d4322c06c78d7fdb0659f064736f6c634300081e0033","linkReferences":{}},"methodIdentifiers":{"allowances(address,address)":"55b6ed5c","approve(address,uint256)":"095ea7b3","balances(address)":"27e235e3","decimals()":"313ce567","name()":"06fdde03","symbol()":"95d89b41","totalSupply()":"18160ddd","transfer(address,uint256)":"a9059cbb","transferFrom(address,address,uint256)":"23b872dd","vulnerableBatchTransfer(address[],uint256)":"dd463ac5","vulnerableBurn(address,uint256)":"ae9c8a26","vulnerableMint(address,uint256)":"6ac2d7c6"},"id":21}