{"abi":[{"type":"function","name":"MIN_EXECUTION_FEE","inputs":[],"outputs":[{"name":"","type":"uint256","internalType":"uint256"}],"stateMutability":"view"},{"type":"function","name":"createDecreaseOrder","inputs":[{"name":"_indexToken","type":"address","internalType":"address"},{"name":"_sizeDelta","type":"uint256","internalType":"uint256"},{"name":"_collateralToken","type":"address","internalType":"address"},{"name":"_collateralDelta","type":"uint256","internalType":"uint256"},{"name":"_isLong","type":"bool","internalType":"bool"},{"name":"_triggerPrice","type":"uint256","internalType":"uint256"},{"name":"_triggerAboveThreshold","type":"bool","internalType":"bool"}],"outputs":[],"stateMutability":"payable"},{"type":"function","name":"createIncreaseOrder","inputs":[{"name":"_path","type":"address[]","internalType":"address[]"},{"name":"_amountIn","type":"uint256","internalType":"uint256"},{"name":"_indexToken","type":"address","internalType":"address"},{"name":"_minOut","type":"uint256","internalType":"uint256"},{"name":"_sizeDelta","type":"uint256","internalType":"uint256"},{"name":"_collateralToken","type":"address","internalType":"address"},{"name":"_isLong","type":"bool","internalType":"bool"},{"name":"_triggerPrice","type":"uint256","internalType":"uint256"},{"name":"_triggerAboveThreshold","type":"bool","internalType":"bool"},{"name":"_executionFee","type":"uint256","internalType":"uint256"},{"name":"_shouldWrap","type":"bool","internalType":"bool"}],"outputs":[],"stateMutability":"payable"},{"type":"function","name":"decreaseOrdersIndex","inputs":[{"name":"","type":"address","internalType":"address"}],"outputs":[{"name":"","type":"uint256","internalType":"uint256"}],"stateMutability":"view"},{"type":"function","name":"increaseOrdersIndex","inputs":[{"name":"","type":"address","internalType":"address"}],"outputs":[{"name":"","type":"uint256","internalType":"uint256"}],"stateMutability":"view"},{"type":"function","name":"minExecutionFee","inputs":[],"outputs":[{"name":"","type":"uint256","internalType":"uint256"}],"stateMutability":"pure"}],"bytecode":{"object":"0x6080604052348015600e575f5ffd5b506108118061001c5f395ff3fe608060405260043610610054575f3560e01c806354e8b0401461005857806363ae210314610082578063aec22455146100ac578063b142a4b0146100e8578063c16cde8a14610104578063d566d0ca14610120575b5f5ffd5b348015610063575f5ffd5b5061006c61015c565b60405161007991906102ff565b60405180910390f35b34801561008d575f5ffd5b50610096610167565b6040516100a391906102ff565b60405180910390f35b3480156100b7575f5ffd5b506100d260048036038101906100cd9190610383565b610175565b6040516100df91906102ff565b60405180910390f35b61010260048036038101906100fd919061055d565b610189565b005b61011e60048036038101906101199190610666565b61022c565b005b34801561012b575f5ffd5b5061014660048036038101906101419190610383565b6102d2565b60405161015391906102ff565b60405180910390f35b660aa87bee53800081565b5f660aa87bee538000905090565b5f602052805f5260405f205f915090505481565b813410156101cc576040517f08c379a00000000000000000000000000000000000000000000000000000000081526004016101c39061075d565b60405180910390fd5b60015f5f3373ffffffffffffffffffffffffffffffffffffffff1673ffffffffffffffffffffffffffffffffffffffff1681526020019081526020015f205f82825461021891906107a8565b925050819055505050505050505050505050565b660aa87bee538000341015610276576040517f08c379a000000000000000000000000000000000000000000000000000000000815260040161026d9061075d565b60405180910390fd5b6001805f3373ffffffffffffffffffffffffffffffffffffffff1673ffffffffffffffffffffffffffffffffffffffff1681526020019081526020015f205f8282546102c291906107a8565b9250508190555050505050505050565b6001602052805f5260405f205f915090505481565b5f819050919050565b6102f9816102e7565b82525050565b5f6020820190506103125f8301846102f0565b92915050565b5f604051905090565b5f5ffd5b5f5ffd5b5f73ffffffffffffffffffffffffffffffffffffffff82169050919050565b5f61035282610329565b9050919050565b61036281610348565b811461036c575f5ffd5b50565b5f8135905061037d81610359565b92915050565b5f6020828403121561039857610397610321565b5b5f6103a58482850161036f565b91505092915050565b5f5ffd5b5f601f19601f8301169050919050565b7f4e487b71000000000000000000000000000000000000000000000000000000005f52604160045260245ffd5b6103f8826103b2565b810181811067ffffffffffffffff82111715610417576104166103c2565b5b80604052505050565b5f610429610318565b905061043582826103ef565b919050565b5f67ffffffffffffffff821115610454576104536103c2565b5b602082029050602081019050919050565b5f5ffd5b5f61047b6104768461043a565b610420565b9050808382526020820190506020840283018581111561049e5761049d610465565b5b835b818110156104c757806104b3888261036f565b8452602084019350506020810190506104a0565b5050509392505050565b5f82601f8301126104e5576104e46103ae565b5b81356104f5848260208601610469565b91505092915050565b610507816102e7565b8114610511575f5ffd5b50565b5f81359050610522816104fe565b92915050565b5f8115159050919050565b61053c81610528565b8114610546575f5ffd5b50565b5f8135905061055781610533565b92915050565b5f5f5f5f5f5f5f5f5f5f5f6101608c8e03121561057d5761057c610321565b5b5f8c013567ffffffffffffffff81111561059a57610599610325565b5b6105a68e828f016104d1565b9b505060206105b78e828f01610514565b9a505060406105c88e828f0161036f565b99505060606105d98e828f01610514565b98505060806105ea8e828f01610514565b97505060a06105fb8e828f0161036f565b96505060c061060c8e828f01610549565b95505060e061061d8e828f01610514565b94505061010061062f8e828f01610549565b9350506101206106418e828f01610514565b9250506101406106538e828f01610549565b9150509295989b509295989b9093969950565b5f5f5f5f5f5f5f60e0888a03121561068157610680610321565b5b5f61068e8a828b0161036f565b975050602061069f8a828b01610514565b96505060406106b08a828b0161036f565b95505060606106c18a828b01610514565b94505060806106d28a828b01610549565b93505060a06106e38a828b01610514565b92505060c06106f48a828b01610549565b91505092959891949750929550565b5f82825260208201905092915050565b7f496e73756666696369656e7420657865637574696f6e206665650000000000005f82015250565b5f610747601a83610703565b915061075282610713565b602082019050919050565b5f6020820190508181035f8301526107748161073b565b9050919050565b7f4e487b71000000000000000000000000000000000000000000000000000000005f52601160045260245ffd5b5f6107b2826102e7565b91506107bd836102e7565b92508282019050808211156107d5576107d461077b565b5b9291505056fea26469706673582212209169c7c377221a91a3a2c52235da4f5cb8374a637c4fee2e68985d9d163b578764736f6c634300081e0033","linkReferences":{}},"methodIdentifiers":{"MIN_EXECUTION_FEE()":"54e8b040","createDecreaseOrder(address,uint256,address,uint256,bool,uint256,bool)":"c16cde8a","createIncreaseOrder(address[],uint256,address,uint256,uint256,address,bool,uint256,bool,uint256,bool)":"b142a4b0","decreaseOrdersIndex(address)":"d566d0ca","increaseOrdersIndex(address)":"aec22455","minExecutionFee()":"63ae2103"},"id":20}